:100000000C946B000C9488000C9488000C9488006D
:100010000C9488000C9488000C9488000C94880040
:100020000C9488000C945F030C9488000C94880056
:100030000C9488000C9488000C9488000C94880020
:100040000C9488000C9488000C9488000C94880010
:100050000C94880007634236B79BD8A71A396856B4
:1000600018AEBAAB558C1D3CB7CC5763BD6DEDFDDA
:10007000753EF6177231BF000000803F0800000097
:10008000BE922449123EABAAAA2ABECDCCCC4C3E8D
:1000900000000080BEABAAAAAA3E00000000BF007C
:1000A0000000803F0000000000084178D3BB438778
:1000B000D1133D190E3CC3BD4282AD2B3E68EC828C
:1000C00076BED98FE1A93E4C80EFFFBE01C4FF7F11
:1000D0003F000000000011241FBECFE5D8E0DEBFC6
:1000E000CDBF12E0A0E6B0E0E6EEF5E402C0059078
:1000F0000D92A831B107D9F712E0A8E1B2E001C032
:100100001D92AD31B107E1F70E94C9030C94F122B1
:100110000C940000DF93CF9300D00F92CDB7DEB7E1
:100120009B838A83198203C089818F5F8983898138
:10013000282F30E08A819B81FC01E20FF31F808130
:10014000882391F789810F900F900F90CF91DF91C5
:100150000895AF92BF92CF92DF92EF92FF920F93EA
:100160001F93DF93CF93CDB7DEB761970FB6F894A7
:10017000DEBF0FBECDBF8A877C876B875E874D87CA
:10018000388B2F878A85883009F020C18B859C8524
:10019000FC0137968081853409F018C180E090E039
:1001A000A0E0B0E08B839C83AD83BE8319826BC0DB
:1001B0008981282F30E08B859C85FC01E20FF31F9D
:1001C0008081803308F45DC08981282F30E08B85E1
:1001D0009C85FC01E20FF31F80818A3308F051C037
:1001E000EB85FC858081823308F04BC0AB80BC80FE
:1001F000CD80DE808981282F30E08B859C85FC01B5
:10020000E20FF31F8081882F90E0C097AA2797FD07
:10021000A095BA2FBC01CD010E944B1D7B018C0122
:100220008981282F30E082E090E0821B930BAA277F
:1002300097FDA095BA2FBC01CD010E944B1D9B01DB
:10024000AC0160E070E080E291E40E948F20DC016C
:10025000CB019C01AD01C801B7010E94151BDC0157
:10026000CB019C01AD01C601B5010E94E81ADC0179
:10027000CB018B839C83AD83BE8389818F5F898310
:1002800002C0198AA4C08981833008F491CF898182
:10029000282F30E08B859C85FC01E20FF31F8081C5
:1002A000863469F08981282F30E08B859C85FC019C
:1002B000E20FF31F8081823411F0198A88C089818E
:1002C000282F30E08B859C85FC01E20FF31F808195
:1002D0008F8318868B859C85FC01349680818533BD
:1002E00030F080E690E00E941619198A70C08B8564
:1002F0009C85FC0134968081843369F48B859C85D0
:10030000FC0135968081863330F08CE690E00E94C7
:100310001619198A5CC08B859C85FC0134968081F6
:10032000882F90E0C097AA2797FDA095BA2FBC010F
:10033000CD010E944B1DDC01CB01BC01CD0120E0B1
:1003400030E040E251E40E94151BDC01CB01BC010E
:10035000CD010E943F19DC01CB01888728858B8560
:100360009C85FC0135968081820F805388878B8520
:100370009C85FC01369680818C3449F08B859C8568
:10038000FC0136968081823511F0198A20C08B8558
:100390009C85FC013696808189878B819C81AD810B
:1003A000BE81ED85FE8580839183A283B3838F8197
:1003B000ED85FE8584838885EF85F889808389852E
:1003C000EF85F889818381E0898B01C0198A898949
:1003D00061960FB6F894DEBF0FBECDBFCF91DF910F
:1003E0001F910F91FF90EF90DF90CF90BF90AF9053
:1003F0000895DF93CF93CDB7DEB765970FB6F89426
:10040000DEBF0FBECDBF8C8B80EC888B80E6898BE6
:1004100080E38A8B80E98B8B1F8690C0A5E3B0E0D8
:1004200080911802282F30E0CE014096FC01E20FA7
:10043000F31F80818C9380911802833030F4809177
:100440001802982F9F5F9D8B01C01D8A8D89809314
:10045000180280E090E0A6E1B4E48B879C87AD872A
:10046000BE876B857C858D859E8520E030E04AEFD8
:1004700054E40E94151BDC01CB018F839887A98768
:10048000BA876F81788589859A8520E030E040E8D9
:100490005FE30E941B1D88232CF481E090E09E8383
:1004A0008D833FC06F81788589859A8520E03FEFF5
:1004B0004FE757E40E94BB1C18164CF56B857C85F2
:1004C0008D859E8520E030E040E251E40E94151BBE
:1004D000DC01CB01BC01CD010E943F19DC01CB0145
:1004E0009E838D830FC088EC90E09C838B838B81EF
:1004F0009C810197F1F79C838B838D819E8101976D
:100500009E838D838D819E81009769F714C06F81D2
:10051000788589859A850E943F19DC01CB019E83ED
:100520008D838D819E819A83898389819A810197A8
:10053000F1F79A8389838F858F5F8F879F858C8959
:10054000981708F46BCF65960FB6F894DEBF0FBE10
:10055000CDBFCF91DF910895DF93CF93CDB7DEB7B5
:1005600065970FB6F894DEBF0FBECDBF8C8B80E3CE
:10057000888B80E6898B80EC8A8B80E98B8B1F8649
:1005800090C0A5E3B0E080911902282F30E0CE01A1
:100590004096FC01E20FF31F80818C938091190239
:1005A000833030F480911902982F9F5F9D8B01C09A
:1005B0001D8A8D898093190280E090E0A6E1B4E461
:1005C0008B879C87AD87BE876B857C858D859E8557
:1005D00020E030E04AEF54E40E94151BDC01CB011F
:1005E0008F839887A987BA876F81788589859A854F
:1005F00020E030E040E85FE30E941B1D88232CF4DC
:1006000081E090E09E838D833FC06F8178858985EE
:100610009A8520E03FEF4FE757E40E94BB1C181675
:100620004CF56B857C858D859E8520E030E040E231
:1006300051E40E94151BDC01CB01BC01CD010E94DD
:100640003F19DC01CB019E838D830FC088EC90E0C5
:100650009C838B838B819C810197F1F79C838B8397
:100660008D819E8101979E838D838D819E810097D0
:1006700069F714C06F81788589859A850E943F1932
:10068000DC01CB019E838D838D819E819A8389833A
:1006900089819A810197F1F79A8389838F858F5F8A
:1006A0008F879F858C89981708F46BCF65960FB656
:1006B000F894DEBF0FBECDBFCF91DF9108951F929A
:1006C0000F920FB60F9211242F933F934F935F9386
:1006D0006F937F938F939F93AF93BF93EF93FF930A
:1006E000DF93CF93CDB7DEB780911B028F5F8093EE
:1006F0001B0280911B028C3338F080911A028F5FAD
:1007000080931A0210921B0280911A028C3338F0E7
:1007100080911C028F5F80931C0210921A020E942B
:10072000A403CF91DF91FF91EF91BF91AF919F9182
:100730008F917F916F915F914F913F912F910F908A
:100740000FBE0F901F901895DF93CF93CDB7DEB7F4
:1007500080E061E00E94FB158CE790E00E940C15A0
:1007600080911C020E9480188AE30E9418108091D8
:100770001A020E9480188AE30E94181080911B02BE
:100780000E94801882E890E00E940C15CF91DF91C2
:1007900008950F931F93DF93CF93CDB7DEB76A977A
:1007A0000FB6F894DEBF0FBECDBFECE4F0E087EFEC
:1007B00092EC91838083A9E5B0E0E9E5F0E08081E7
:1007C00084608C93EEE4F0E084E08083A7E3B0E003
:1007D000E7E3F0E0808188608C93E3E5F0E082E677
:1007E00080830E947E0A0E94D718CE010E969F8BAE
:1007F0008E8BE6E8F0E0F98FE88FF5E0FA8FE88D70
:10080000F98D0080888D998D0196998F888FEE895A
:10081000FF8900828E899F8901969F8B8E8B9A8D8E
:1008200091509A8FEA8DEE2351F71B8A82E58C8BCB
:100830001B8283E066E041E00E94B80583E067E048
:1008400041E00E94B80581E061E041E00E94B80506
:1008500081E062E041E00E94B80582E064E041E0AE
:100860000E94B80582E065E041E00E94B80582E0A0
:1008700066E041E00E94B80582E067E041E00E9446
:10088000B80580E064E041E00E94B80580E065E0E2
:1008900041E00E94B80580E066E041E00E94B805B2
:1008A00080E067E041E00E94B80581E061E040E05F
:1008B0000E94AA0681E062E041E00E94AA060CE5DF
:1008C00010E08E859F85A889B989BC01CD0123E3FD
:1008D00033E343E250E40E94151BDC01CB01BC0171
:1008E000CD010E943520DC01CB01BC01CD010E946D
:1008F0003F19DC01CB01F80180838BE890E00E9476
:100900000C1580E061E00E94FB158CE990E00E94EC
:100910000C1578940E9407198C838C810E94F01822
:100920008C818D3009F00EC19E012B5F3F4FAE01CF
:10093000425F5F4FFE0173968B81B9019F010E9458
:10094000A900813009F0E9C08DEA90E00E941619F3
:100950001A821A820EC08A81282F30E0CE010596B5
:10096000FC01E20FF31F80810E94F0188A818F5FE3
:100970008A838A81833078F385E20E94F0188BEBBA
:1009800090E00E94161988850E94F0188FEB90E085
:100990000E9416198DE00E94F01881EC90E00E94F0
:1009A000161984E08A830EC08A81282F30E0CE0198
:1009B0000596FC01E20FF31F80810E94F0188A81E6
:1009C0008F5F8A838A81863078F38BEB90E00E9478
:1009D00016198B850E94F0188FEB90E00E94161973
:1009E0008DE00E94F01881E00E94240B84ED90E0DD
:1009F0000E940C158D81803319F08D810E94181092
:100A000081E089830EC08981282F30E0CE010596D0
:100A1000FC01E20FF31F80810E94181089818F5F13
:100A200089838981833078F385E20E9418108A894E
:100A30000E94181087ED90E00E940C158C898C3470
:100A400021F48DE20E94181003C08BE20E9418105E
:100A500084E089830EC08981282F30E0CE0105967D
:100A6000FC01E20FF31F80810E94181089818F5FC3
:100A700089838981863078F383E066E041E00E94D3
:100A8000AA0683E067E040E00E94AA068A898234D1
:100A900059F481E061E041E00E94AA0681E062E051
:100AA00040E00E94AA060DC08A89863451F481E094
:100AB00061E040E00E94AA0681E062E041E00E941D
:100AC000AA060CE510E08E859F85A889B989BC012E
:100AD000CD0123E333E343E250E40E94151BDC0124
:100AE000CB01BC01CD010E943520DC01CB01BC0152
:100AF000CD010E943F19DC01CB01F80180838C8974
:100B00008C3421F48B890E94AC0218C08C89823508
:100B1000A9F48B890E94F90111C083E066E040E0EE
:100B20000E94AA0683E067E041E00E94AA068EEDDB
:100B300090E00E9416198DE00E94F0181B828EE44E
:100B40008C87E8CE8B81282F30E0CE010596FC0102
:100B5000E20FF31F8C8180838B818B3028F48B8193
:100B6000F82FFF5FFD8B01C01D8A8D898B83D2CE4C
:100B7000DF93CF9300D000D000D0CDB7DEB78A830B
:100B80006B834C8381E089838A81843030F48B814C
:100B9000883018F48C81823010F01982D1C08A819B
:100BA000282F30E03E832D838D819E8181309105F9
:100BB00009F443C02D813E81223031052CF48D8112
:100BC0009E81009771F0BCC02D813E81223031059D
:100BD00009F45FC08D819E818330910509F485C041
:100BE000AFC08C818823A9F4AAE3B0E0EAE3F0E087
:100BF0008081482F8B81282F30E081E090E0022E09
:100C000002C0880F991F0A94E2F7809584238C9381
:100C100097C0AAE3B0E0EAE3F0E08081482F8B813F
:100C2000282F30E081E090E0022E02C0880F991F4B
:100C30000A94E2F7842B8C9383C08C818823A9F4D7
:100C4000A7E3B0E0E7E3F0E08081482F8B81282F15
:100C500030E081E090E0022E02C0880F991F0A94D4
:100C6000E2F7809584238C936BC0A7E3B0E0E7E3C1
:100C7000F0E08081482F8B81282F30E081E090E0E8
:100C8000022E02C0880F991F0A94E2F7842B8C93DE
:100C900057C08C818823A9F4A4E3B0E0E4E3F0E03A
:100CA0008081482F8B81282F30E081E090E0022E58
:100CB00002C0880F991F0A94E2F7809584238C93D1
:100CC0003FC0A4E3B0E0E4E3F0E08081482F8B81F3
:100CD000282F30E081E090E0022E02C0880F991F9B
:100CE0000A94E2F7842B8C932BC08C818823A9F47F
:100CF000A1E3B0E0E1E3F0E08081482F8B81282F71
:100D000030E081E090E0022E02C0880F991F0A9423
:100D1000E2F7809584238C9313C0A1E3B0E0E1E374
:100D2000F0E08081482F8B81282F30E081E090E037
:100D3000022E02C0880F991F0A94E2F7842B8C932D
:100D4000898126960FB6F894DEBF0FBECDBFCF9136
:100D5000DF910895DF93CF9300D000D000D0CDB7BE
:100D6000DEB78A836B834C8381E089838A818430F8
:100D700030F48B81883018F48C81823008F019822D
:100D80008A81282F30E03E832D838D819E818130A2
:100D9000910509F443C02D813E81223031052CF4A8
:100DA0008D819E81009771F0BCC02D813E812230E3
:100DB000310509F45FC08D819E818330910509F46E
:100DC00085C0AFC08C818823A9F4ABE3B0E0EBE32E
:100DD000F0E08081482F8B81282F30E081E090E087
:100DE000022E02C0880F991F0A94E2F7809584238F
:100DF0008C9397C0ABE3B0E0EBE3F0E08081482F49
:100E00008B81282F30E081E090E0022E02C0880F15
:100E1000991F0A94E2F7842B8C9383C08C818823DA
:100E2000A9F4A8E3B0E0E8E3F0E08081482F8B81EB
:100E3000282F30E081E090E0022E02C0880F991F39
:100E40000A94E2F7809584238C936BC0A8E3B0E00A
:100E5000E8E3F0E08081482F8B81282F30E081E0AB
:100E600090E0022E02C0880F991F0A94E2F7842BAB
:100E70008C9357C08C818823A9F4A5E3B0E0E5E307
:100E8000F0E08081482F8B81282F30E081E090E0D6
:100E9000022E02C0880F991F0A94E2F780958423DE
:100EA0008C933FC0A5E3B0E0E5E3F0E08081482FFC
:100EB0008B81282F30E081E090E0022E02C0880F65
:100EC000991F0A94E2F7842B8C932BC08C81882382
:100ED000A9F4A2E3B0E0E2E3F0E08081482F8B8147
:100EE000282F30E081E090E0022E02C0880F991F89
:100EF0000A94E2F7809584238C9313C0A2E3B0E0B8
:100F0000E2E3F0E08081482F8B81282F30E081E000
:100F100090E0022E02C0880F991F0A94E2F7842BFA
:100F20008C93898126960FB6F894DEBF0FBECDBF95
:100F3000CF91DF910895DF93CF9300D000D000D000
:100F4000CDB7DEB78A836B8381E089838A81843061
:100F500018F48B81883008F019828A81282F30E0BC
:100F60003E832D834D815E814130510549F18D8154
:100F70009E818230910534F42D813E812115310509
:100F800061F057C04D815E814230510561F18D8124
:100F90009E8183309105D1F14CC0E9E3F0E080817E
:100FA000282F30E08B81882F90E0A90102C0559551
:100FB00047958A95E2F7CA01582F51705C833BC070
:100FC000E6E3F0E08081282F30E08B81882F90E0ED
:100FD000A90102C0559547958A95E2F7CA01582F95
:100FE00051705C8328C0E3E3F0E08081282F30E07B
:100FF0008B81882F90E0A90102C0559547958A956D
:10100000E2F7CA01582F51705C8315C0E0E3F0E0AD
:101010008081282F30E08B81882F90E0A90102C0C9
:10102000559547958A95E2F7CA01582F51705C8310
:1010300002C089818C838C8126960FB6F894DEBF1E
:101040000FBECDBFCF91DF910895DF93CF9300D036
:1010500000D0CDB7DEB78A8381E089838A8184306E
:1010600008F019828A81282F30E03C832B838B8102
:101070009C8181309105D1F02B813C81223031055A
:101080002CF48B819C81009761F01EC02B813C81E8
:101090002230310581F08B819C818330910581F074
:1010A00013C0EAE3F0E08FEF80830EC0E7E3F0E0E7
:1010B0008FEF808309C0E4E3F0E08FEF808304C00A
:1010C000E1E3F0E08FEF808389810F900F900F9024
:1010D0000F90CF91DF910895DF93CF9300D000D090
:1010E0000F92CDB7DEB78A836B8381E089838A81D3
:1010F000843008F019828A81282F30E03D832C83C8
:101100008C819D8181309105D1F02C813D812230EF
:1011100031052CF48C819D81009761F01EC02C81DB
:101120003D812230310581F08C819D818330910594
:1011300081F013C0EBE3F0E08B8180830EC0E8E325
:10114000F0E08B81808309C0E5E3F0E08B81808350
:1011500004C0E2E3F0E08B81808389810F900F90DF
:101160000F900F900F90CF91DF910895EF920F9312
:10117000DF93CF93CDB7DEB728970FB6F894DEBFD5
:101180000FBECDBF89836A834B832C830D83EE8290
:101190008981282F30E038872F838F81988581308F
:1011A000910509F443C02F813885223031052CF494
:1011B0008F819885009771F0BCC02F8138852230CF
:1011C000310509F45FC08F8198858330910509F45A
:1011D00085C0AFC08A81982F991F9927991F80E0F9
:1011E0006E81492F0E94AA068A81829586958695EE
:1011F0008370982F917080E06D81492F0E94AA061C
:101200008A81829586958770982F917080E06C8195
:10121000492F0E94AA068A8182958F70982F91701B
:1012200080E06B81492F0E94AA0683C08A81982F93
:10123000991F9927991F81E06E81492F0E94AA0664
:101240008A818295869586958370982F917081E02A
:101250006D81492F0E94AA068A81829586958770A2
:10126000982F917081E06C81492F0E94AA068A8193
:1012700082958F70982F917081E06B81492F0E9429
:10128000AA0657C08A81982F991F9927991F82E033
:101290006E81492F0E94AA068A818295869586953D
:1012A0008370982F917082E06D81492F0E94AA0669
:1012B0008A81829586958770982F917082E06C81E3
:1012C000492F0E94AA068A8182958F70982F91706B
:1012D00082E06B81492F0E94AA062BC08A81982F39
:1012E000991F9927991F83E06E81492F0E94AA06B2
:1012F0008A818295869586958370982F917083E078
:101300006D81492F0E94AA068A81829586958770F1
:10131000982F917083E06C81492F0E94AA068A81E0
:1013200082958F70982F917083E06B81492F0E9476
:10133000AA0628960FB6F894DEBF0FBECDBFCF9198
:10134000DF910F91EF900895EF920F93DF93CF937A
:10135000CDB7DEB728970FB6F894DEBF0FBECDBF6E
:1013600089836A834B832C830D83EE828981282FA6
:1013700030E038872F838F8198858130910509F47B
:101380003EC02F813885223031052CF48F8198851D
:10139000009771F0A8C02F8138852230310509F4FB
:1013A00055C08F8198858330910509F476C09BC024
:1013B0008A81869586958695982F917080E06E81BA
:1013C000492F0E94AA068A8186958695982F91704A
:1013D00080E06D81492F0E94AA068A818695982F08
:1013E000917080E06C81492F0E94AA068A81982F13
:1013F000917080E06B81492F0E94AA0674C08A8197
:10140000869586958695982F917081E06E81492FFB
:101410000E94AA068A8186958695982F917081E010
:101420006D81492F0E94AA068A818695982F917016
:1014300081E06C81492F0E94AA068A81982F9170C1
:1014400081E06B81492F0E94AA064DC08A81869552
:1014500086958695982F917082E06E81492F0E9423
:10146000AA068A8186958695982F917082E06D8173
:10147000492F0E94AA068A818695982F917082E052
:101480006C81492F0E94AA068A81982F917082E070
:101490006B81492F0E94AA0626C08A81869586956F
:1014A0008695982F917083E06E81492F0E94AA063D
:1014B0008A8186958695982F917083E06D81492F5A
:1014C0000E94AA068A818695982F917083E06C818C
:1014D000492F0E94AA068A81982F917083E06B8120
:1014E000492F0E94AA0628960FB6F894DEBF0FBEB9
:1014F000CDBFCF91DF910F91EF900895DF93CF9300
:10150000CDB7DEB72E970FB6F894DEBF0FBECDBFB6
:1015100080E060E041E00E94B80580E061E041E0E9
:101520000E94B80580E062E041E00E94B80581E0D9
:101530000E94DF1783E30E94240B82E30E94240BA6
:1015400088E20E94240B8CE00E94240B81E00E9420
:10155000240B80E090E0A0E0B0E48B879C87AD870F
:10156000BE876B857C858D859E8520E030E04AEFC7
:1015700054E40E94151BDC01CB018F839887A98757
:10158000BA876F81788589859A8520E030E040E8C8
:101590005FE30E941B1D88232CF481E090E09E8372
:1015A0008D833FC06F81788589859A8520E03FEFE4
:1015B0004FE757E40E94BB1C18164CF56B857C85E1
:1015C0008D859E8520E030E040E251E40E94151BAD
:1015D000DC01CB01BC01CD010E943F19DC01CB0134
:1015E0009E838D830FC088EC90E09C838B838B81DE
:1015F0009C810197F1F79C838B838D819E8101975C
:101600009E838D838D819E81009769F714C06F81C1
:10161000788589859A850E943F19DC01CB019E83DC
:101620008D838D819E819A83898389819A81019797
:10163000F1F79A8389832E960FB6F894DEBF0FBE1A
:10164000CDBFCF91DF9108950F931F93DF93CF9379
:10165000CDB7DEB7C957D0400FB6F894DEBF0FBE86
:10166000CDBFFE01E758FF4F808380E060E040E09F
:101670000E94AA0680E061E040E00E94AA06FE0106
:10168000E758FF4F81E060810E941B1680E062E016
:1016900041E00E94AA06FE01EB58FF4F80E090E077
:1016A000A0E8BFE380839183A283B3838E010F58A8
:1016B0001F4FFE01EB58FF4F608171818281938142
:1016C0002BEA3AEA4AE250E40E94151BDC01CB0106
:1016D000F80180839183A283B383FE01EF58FF4F0B
:1016E000608171818281938120E030E040E85FE396
:1016F0000E941B1D882334F4FE01E059FF4F81E056
:101700008083E0C0FE01EF58FF4F608171818281CC
:10171000938120E030E04FE753E40E94BB1C181691
:101720000CF0C0C0FE01EB58FF4F608171818281D7
:10173000938120E030E04AE754E40E940F1CDC0172
:10174000CB01FE01E459FF4F80839183A283B383D1
:101750008E0108591F4FFE01E459FF4F60817181CE
:101760008281938120E030E04AEF54E40E94151B0F
:10177000DC01CB01F80180839183A283B383FE0156
:10178000E859FF4F608171818281938120E030E0D0
:1017900040E85FE30E941B1D882344F4FE01EA59E0
:1017A000FF4F81E090E09183808364C0FE01E8599F
:1017B000FF4F608171818281938120E03FEF4FE78D
:1017C00057E40E94BB1C18160CF043C0FE01E459FC
:1017D000FF4F608171818281938120E030E040E29F
:1017E00051E40E94151BDC01CB018E010A591F4FE9
:1017F000BC01CD010E943F19DC01CB01F8019183AE
:1018000080831FC0FE01EC59FF4F88EC90E091836C
:101810008083FE01EC59FF4F808191810197F1F7A0
:10182000FE01EC59FF4F91838083DE01AA59BF4F1F
:10183000FE01EA59FF4F80819181019711969C9397
:101840008E93FE01EA59FF4F808191810097D1F676
:101850004BC08E010A591F4FFE01E859FF4F6081AE
:101860007181828193810E943F19DC01CB01F801D3
:1018700091838083DE01AE59BF4FFE01EA59FF4FCD
:101880008081918111969C938E93FE01EE59FF4FBA
:10189000808191810197F1F7FE01EE59FF4F91830D
:1018A000808322C08E0100591F4FFE01EF58FF4F69
:1018B00060817181828193810E943F19DC01CB019B
:1018C000F8018083DE01AF59BF4FFE01E059FF4FA1
:1018D00080818C93FE01EF59FF4F80818A95F1F74B
:1018E000FE01EF59FF4F808380E062E040E00E94FC
:1018F000AA06FE01E35AFF4F80E090E0A0E8BFE3B4
:1019000080839183A283B3838E01075A1F4FFE0108
:10191000E35AFF4F60817181828193812BEA3AEA19
:101920004AE250E40E94151BDC01CB01F8018083E0
:101930009183A283B383FE01E75AFF4F60817181D7
:101940008281938120E030E040E85FE30E941B1D2C
:10195000882334F4FE01E85AFF4F81E08083E0C021
:10196000FE01E75AFF4F608171818281938120E0FF
:1019700030E04FE753E40E94BB1C18160CF0C0C0C7
:10198000FE01E35AFF4F608171818281938120E0E3
:1019900030E04AE754E40E940F1CDC01CB01FE0159
:1019A000EC5AFF4F80839183A283B3838E01005B47
:1019B0001F4FFE01EC5AFF4F60817181828193813C
:1019C00020E030E04AEF54E40E94151BDC01CB011B
:1019D000F80180839183A283B383FE01E05BFF4F14
:1019E000608171818281938120E030E040E85FE393
:1019F0000E941B1D882344F4FE01E25BFF4F81E03F
:101A000090E09183808364C0FE01E05BFF4F6081C2
:101A100071818281938120E03FEF4FE757E40E947C
:101A2000BB1C18160CF043C0FE01EC5AFF4F60813E
:101A300071818281938120E030E040E251E40E9494
:101A4000151BDC01CB018E01025B1F4FBC01CD01D8
:101A50000E943F19DC01CB01F801918380831FC0F4
:101A6000FE01E45BFF4F88EC90E091838083FE01F0
:101A7000E45BFF4F808191810197F1F7FE01E45B08
:101A8000FF4F91838083DE01A25BBF4FFE01E25BCB
:101A9000FF4F80819181019711969C938E93FE0157
:101AA000E25BFF4F808191810097D1F64BC08E01A0
:101AB000025B1F4FFE01E05BFF4F608171818281FD
:101AC00093810E943F19DC01CB01F801918380834F
:101AD000DE01A65BBF4FFE01E25BFF4F808191817B
:101AE00011969C938E93FE01E65BFF4F808191815E
:101AF0000197F1F7FE01E65BFF4F9183808322C0DF
:101B00008E01085A1F4FFE01E75AFF4F6081718115
:101B1000828193810E943F19DC01CB01F80180830F
:101B2000DE01A75BBF4FFE01E85AFF4F80818C9317
:101B3000FE01E75BFF4F80818A95F1F7FE01E75BCD
:101B4000FF4F8083FE01E758FF4F81E060810E94D4
:101B5000FB1680E062E041E00E94AA06FE01EB5B1A
:101B6000FF4F80E090E0A0E8BFE380839183A283F1
:101B7000B3838E010F5B1F4FFE01EB5BFF4F608154
:101B80007181828193812BEA3AEA4AE250E40E9411
:101B9000151BDC01CB01F80180839183A283B38301
:101BA000FE01EF5BFF4F608171818281938120E0B4
:101BB00030E040E85FE30E941B1D882334F481E09D
:101BC000FE01E05CFF4F80839DC0FE01EF5BFF4F95
:101BD000608171818281938120E030E04FE753E49E
:101BE0000E94BB1C18160CF07EC0FE01EB5BFF4F81
:101BF000608171818281938120E030E04AE754E482
:101C00000E940F1CDC01CB018CAF9DAFAEAFBFAF0C
:101C10006CAD7DAD8EAD9FAD20E030E04AEF54E479
:101C20000E94151BDC01CB0188AF99AFAAAFBBAFF7
:101C300068AD79AD8AAD9BAD20E030E040E85FE370
:101C40000E941B1D88232CF481E090E09FAB8EAB9B
:101C50003FC068AD79AD8AAD9BAD20E03FEF4FE767
:101C600057E40E94BB1C18164CF56CAD7DAD8EADD3
:101C70009FAD20E030E040E251E40E94151BDC0102
:101C8000CB01BC01CD010E943F19DC01CB019FAB10
:101C90008EAB0FC088EC90E09DAB8CAB8CA99DA95E
:101CA0000197F1F79DAB8CAB8EA99FA901979FABD4
:101CB0008EAB8EA99FA9009769F72DC068AD79AD4D
:101CC0008AAD9BAD0E943F19DC01CB019FAB8EAB6F
:101CD0008EA99FA99BAB8AAB8AA99BA90197F1F713
:101CE0009BAB8AAB18C0FE01EF5BFF4F6081718137
:101CF000828193810E943F19DC01CB01FE01E05CEF
:101D0000FF4F8083FE01E05CFF4F808189AB89A992
:101D10008A95F1F789AB80E062E040E00E94AA0674
:101D200080E090E0A0E8BFE38DA79EA7AFA7B8AB87
:101D30006DA57EA58FA598A92BEA3AEA4AE250E460
:101D40000E94151BDC01CB0189A79AA7ABA7BCA7F2
:101D500069A57AA58BA59CA520E030E040E85FE36B
:101D60000E941B1D88231CF481E088A791C069A5EF
:101D70007AA58BA59CA520E030E04FE753E40E94B4
:101D8000BB1C18160CF07BC06DA57EA58FA598A96D
:101D900020E030E04AE754E40E940F1CDC01CB0154
:101DA0008CA39DA3AEA3BFA36CA17DA18EA19FA177
:101DB00020E030E04AEF54E40E94151BDC01CB0127
:101DC00088A399A3AAA3BBA368A179A18AA19BA177
:101DD00020E030E040E85FE30E941B1D88232CF4E4
:101DE00081E090E09F8F8E8F3FC068A179A18AA18A
:101DF0009BA120E03FEF4FE757E40E94BB1C181661
:101E00004CF56CA17DA18EA19FA120E030E040E2C5
:101E100051E40E94151BDC01CB01BC01CD010E94E5
:101E20003F19DC01CB019F8F8E8F0FC088EC90E0B3
:101E30009D8F8C8F8C8D9D8D0197F1F79D8F8C8F51
:101E40008E8D9F8D01979F8F8E8F8E8D9F8D00978A
:101E500069F724C068A179A18AA19BA10E943F19BA
:101E6000DC01CB019F8F8E8F8E8D9F8D9B8F8A8FF4
:101E70008A8D9B8D0197F1F79B8F8A8F0FC069A583
:101E80007AA58BA59CA50E943F19DC01CB0188A7F0
:101E900088A5898F898D8A95F1F7898F80E090E0F8
:101EA000A8ECB2E48D8B9E8BAF8BB88F6D897E8949
:101EB0008F89988D2BEA3AEA4AE250E40E94151B7A
:101EC000DC01CB01898B9A8BAB8BBC8B69897A89BE
:101ED0008B899C8920E030E040E85FE30E941B1D75
:101EE00088231CF481E0888B91C069897A898B8969
:101EF0009C8920E030E04FE753E40E94BB1C181699
:101F00000CF07BC06D897E898F89988D20E030E050
:101F10004AE754E40E940F1CDC01CB018C879D87AB
:101F2000AE87BF876C857D858E859F8520E030E0FC
:101F30004AEF54E40E94151BDC01CB018887998786
:101F4000AA87BB87688579858A859B8520E030E0F4
:101F500040E85FE30E941B1D88232CF481E090E0A1
:101F60009F838E833FC0688579858A859B8520E025
:101F70003FEF4FE757E40E94BB1C18164CF56C85E9
:101F80007D858E859F8520E030E040E251E40E940F
:101F9000151BDC01CB01BC01CD010E943F19DC0106
:101FA000CB019F838E830FC088EC90E09D838C8350
:101FB0008C819D810197F1F79D838C838E819F8118
:101FC00001979F838E838E819F81009769F724C03C
:101FD000688579858A859B850E943F19DC01CB0144
:101FE0009F838E838E819F819B838A838A819B813D
:101FF0000197F1F79B838A830FC069897A898B895E
:102000009C890E943F19DC01CB01888B88898983D8
:1020100089818A95F1F78983C758DF4F0FB6F89405
:10202000DEBF0FBECDBFCF91DF911F910F910895FD
:102030000F931F93DF93CF93CDB7DEB7C957D0402F
:102040000FB6F894DEBF0FBECDBFFE01E758FF4FBD
:10205000808380E060E041E00E94AA0680E061E0C9
:1020600040E00E94AA06FE01E758FF4F81E0608130
:102070000E941B1680E062E041E00E94AA06FE0179
:10208000EB58FF4F80E090E0A0E8BFE380839183AE
:10209000A283B3838E010F581F4FFE01EB58FF4FF1
:1020A00060817181828193812BEA3AEA4AE250E4AD
:1020B0000E94151BDC01CB01F80180839183A28370
:1020C000B383FE01EF58FF4F60817181828193815C
:1020D00020E030E040E85FE30E941B1D882334F4D9
:1020E000FE01E059FF4F81E08083E0C0FE01EF5820
:1020F000FF4F608171818281938120E030E04FE762
:1021000053E40E94BB1C18160CF0C0C0FE01EB5833
:10211000FF4F608171818281938120E030E04AE746
:1021200054E40E940F1CDC01CB01FE01E459FF4F77
:1021300080839183A283B3838E0108591F4FFE01D0
:10214000E459FF4F608171818281938120E030E00A
:102150004AEF54E40E94151BDC01CB01F801808397
:102160009183A283B383FE01E859FF4F608171819F
:102170008281938120E030E040E85FE30E941B1DF4
:10218000882344F4FE01EA59FF4F81E090E09183F7
:10219000808364C0FE01E859FF4F608171818281B4
:1021A000938120E03FEF4FE757E40E94BB1C1816D5
:1021B0000CF043C0FE01E459FF4F608171818281C0
:1021C000938120E030E040E251E40E94151BDC01E5
:1021D000CB018E010A591F4FBC01CD010E943F194E
:1021E000DC01CB01F801918380831FC0FE01EC5913
:1021F000FF4F88EC90E091838083FE01EC59FF4F04
:10220000808191810197F1F7FE01EC59FF4F918395
:102210008083DE01AA59BF4FFE01EA59FF4F80813A
:102220009181019711969C938E93FE01EA59FF4F7D
:10223000808191810097D1F64BC08E010A591F4FC2
:10224000FE01E859FF4F60817181828193810E9474
:102250003F19DC01CB01F80191838083DE01AE5987
:10226000BF4FFE01EA59FF4F8081918111969C93E7
:102270008E93FE01EE59FF4F808191810197F1F716
:10228000FE01EE59FF4F9183808322C08E010059D9
:102290001F4FFE01EF58FF4F608171818281938152
:1022A0000E943F19DC01CB01F8018083DE01AF59A8
:1022B000BF4FFE01E059FF4F80818C93FE01EF5923
:1022C000FF4F80818A95F1F7FE01EF59FF4F808320
:1022D00080E062E040E00E94AA06FE01E35AFF4F60
:1022E00080E090E0A0E8BFE380839183A283B38382
:1022F0008E01075A1F4FFE01E35AFF4F6081718123
:10230000828193812BEA3AEA4AE250E40E94151B4B
:10231000DC01CB01F80180839183A283B383FE01AA
:10232000E75AFF4F608171818281938120E030E024
:1023300040E85FE30E941B1D882334F4FE01E85A45
:10234000FF4F81E08083E0C0FE01E75AFF4F6081CC
:1023500071818281938120E030E04FE753E40E9455
:10236000BB1C18160CF0C0C0FE01E35AFF4F608181
:1023700071818281938120E030E04AE754E40E9439
:102380000F1CDC01CB01FE01EC5AFF4F80839183CF
:10239000A283B3838E01005B1F4FFE01EC5AFF4FF7
:1023A000608171818281938120E030E04AEF54E4C2
:1023B0000E94151BDC01CB01F80180839183A2836D
:1023C000B383FE01E05BFF4F608171818281938165
:1023D00020E030E040E85FE30E941B1D882344F4C6
:1023E000FE01E25BFF4F81E090E09183808364C057
:1023F000FE01E05BFF4F608171818281938120E06B
:102400003FEF4FE757E40E94BB1C18160CF043C087
:10241000FE01EC5AFF4F608171818281938120E03F
:1024200030E040E251E40E94151BDC01CB018E013B
:10243000025B1F4FBC01CD010E943F19DC01CB01A3
:10244000F801918380831FC0FE01E45BFF4F88EC9D
:1024500090E091838083FE01E45BFF4F8081918156
:102460000197F1F7FE01E45BFF4F91838083DE016A
:10247000A25BBF4FFE01E25BFF4F8081918101971C
:1024800011969C938E93FE01E25BFF4F80819181B8
:102490000097D1F64BC08E01025B1F4FFE01E05B3F
:1024A000FF4F60817181828193810E943F19DC011D
:1024B000CB01F80191838083DE01A65BBF4FFE0153
:1024C000E25BFF4F8081918111969C938E93FE0178
:1024D000E65BFF4F808191810197F1F7FE01E65B9A
:1024E000FF4F9183808322C08E01085A1F4FFE0147
:1024F000E75AFF4F60817181828193810E943F1969
:10250000DC01CB01F8018083DE01A75BBF4FFE0138
:10251000E85AFF4F80818C93FE01E75BFF4F80817B
:102520008A95F1F7FE01E75BFF4F8083FE01E758D4
:10253000FF4F81E060810E94FB1680E062E041E095
:102540000E94AA06FE01EB5BFF4F80E090E0A0E84E
:10255000BFE380839183A283B3838E010F5B1F4F00
:10256000FE01EB5BFF4F60817181828193812BEAD9
:102570003AEA4AE250E40E94151BDC01CB01F80163
:1025800080839183A283B383FE01EF5BFF4F608161
:1025900071818281938120E030E040E85FE30E9416
:1025A0001B1D882334F481E0FE01E05CFF4F808333
:1025B0009DC0FE01EF5BFF4F60817181828193813D
:1025C00020E030E04FE753E40E94BB1C18160CF0EB
:1025D0007EC0FE01EB5BFF4F608171818281938140
:1025E00020E030E04AE754E40E940F1CDC01CB01FC
:1025F0008CAF9DAFAEAFBFAF6CAD7DAD8EAD9FADBF
:1026000020E030E04AEF54E40E94151BDC01CB01CE
:1026100088AF99AFAAAFBBAF68AD79AD8AAD9BADBE
:1026200020E030E040E85FE30E941B1D88232CF48B
:1026300081E090E09FAB8EAB3FC068AD79AD8AADD5
:102640009BAD20E03FEF4FE757E40E94BB1C1816FC
:102650004CF56CAD7DAD8EAD9FAD20E030E040E23D
:1026600051E40E94151BDC01CB01BC01CD010E948D
:102670003F19DC01CB019FAB8EAB0FC088EC90E023
:102680009DAB8CAB8CA99DA90197F1F79DAB8CAB51
:102690008EA99FA901979FAB8EAB8EA99FA900978A
:1026A00069F72DC068AD79AD8AAD9BAD0E943F1929
:1026B000DC01CB019FAB8EAB8EA99FA99BAB8AABF4
:1026C0008AA99BA90197F1F79BAB8AAB18C0FE01C1
:1026D000EF5BFF4F60817181828193810E943F197E
:1026E000DC01CB01FE01E05CFF4F8083FE01E05C7A
:1026F000FF4F808189AB89A98A95F1F789AB80E08A
:1027000062E040E00E94AA0680E090E0A0E8BFE31B
:102710008DA79EA7AFA7B8AB6DA57EA58FA598A9DD
:102720002BEA3AEA4AE250E40E94151BDC01CB0195
:1027300089A79AA7ABA7BCA769A57AA58BA59CA5D5
:1027400020E030E040E85FE30E941B1D88231CF47A
:1027500081E088A791C069A57AA58BA59CA520E0FA
:1027600030E04FE753E40E94BB1C18160CF07BC00E
:102770006DA57EA58FA598A920E030E04AE754E436
:102780000E940F1CDC01CB018CA39DA3AEA3BFA3B1
:102790006CA17DA18EA19FA120E030E04AEF54E41E
:1027A0000E94151BDC01CB0188A399A3AAA3BBA39C
:1027B00068A179A18AA19BA120E030E040E85FE315
:1027C0000E941B1D88232CF481E090E09F8F8E8F48
:1027D0003FC068A179A18AA19BA120E03FEF4FE70C
:1027E00057E40E94BB1C18164CF56CA17DA18EA16C
:1027F0009FA120E030E040E251E40E94151BDC0183
:10280000CB01BC01CD010E943F19DC01CB019F8FA0
:102810008E8F0FC088EC90E09D8F8C8F8C8D9D8D5E
:102820000197F1F79D8F8C8F8E8D9F8D01979F8FD4
:102830008E8F8E8D9F8D009769F724C068A179A136
:102840008AA19BA10E943F19DC01CB019F8F8E8F33
:102850008E8D9F8D9B8F8A8F8A8D9B8D0197F1F72F
:102860009B8F8A8F0FC069A57AA58BA59CA50E9416
:102870003F19DC01CB0188A788A5898F898D8A95AE
:10288000F1F7898F80E090E0A8ECB2E48D8B9E8B0D
:10289000AF8BB88F6D897E898F89988D2BEA3AEA44
:1028A0004AE250E40E94151BDC01CB01898B9A8B14
:1028B000AB8BBC8B69897A898B899C8920E030E05D
:1028C00040E85FE30E941B1D88231CF481E0888B95
:1028D00091C069897A898B899C8920E030E04FE733
:1028E00053E40E94BB1C18160CF07BC06D897E89D6
:1028F0008F89988D20E030E04AE754E40E940F1C55
:10290000DC01CB018C879D87AE87BF876C857D8579
:102910008E859F8520E030E04AEF54E40E94151B2D
:10292000DC01CB0188879987AA87BB876885798571
:102930008A859B8520E030E040E85FE30E941B1D14
:1029400088232CF481E090E09F838E833FC06885CC
:1029500079858A859B8520E03FEF4FE757E40E9409
:10296000BB1C18164CF56C857D858E859F8520E0F7
:1029700030E040E251E40E94151BDC01CB01BC01B8
:10298000CD010E943F19DC01CB019F838E830FC0D4
:1029900088EC90E09D838C838C819D810197F1F779
:1029A0009D838C838E819F8101979F838E838E81EF
:1029B0009F81009769F724C0688579858A859B8502
:1029C0000E943F19DC01CB019F838E838E819F8102
:1029D0009B838A838A819B810197F1F79B838A83FA
:1029E0000FC069897A898B899C890E943F19DC0113
:1029F000CB01888B8889898389818A95F1F78983BE
:102A0000C758DF4F0FB6F894DEBF0FBECDBFCF91D2
:102A1000DF911F910F910895DF93CF93CDB7DEB76C
:102A20006B970FB6F894DEBF0FBECDBF9B8F8A8F1A
:102A3000198ECCC0898D282F30E08A8D9B8DFC01AA
:102A4000E20FF31F80810E94181080E090E0A0E860
:102A5000BFE38D8B9E8BAF8BB88F6D897E898F89FD
:102A6000988D2BEA3AEA4AE250E40E94151BDC01F9
:102A7000CB01898B9A8BAB8BBC8B69897A898B89CB
:102A80009C8920E030E040E85FE30E941B1D882322
:102A90001CF481E0888B91C069897A898B899C8933
:102AA00020E030E04FE753E40E94BB1C18160CF006
:102AB0007BC06D897E898F89988D20E030E04AE760
:102AC00054E40E940F1CDC01CB018C879D87AE87EC
:102AD000BF876C857D858E859F8520E030E04AEF3D
:102AE00054E40E94151BDC01CB0188879987AA87D3
:102AF000BB87688579858A859B8520E030E040E842
:102B00005FE30E941B1D88232CF481E090E09F83EB
:102B10008E833FC0688579858A859B8520E03FEF5D
:102B20004FE757E40E94BB1C18164CF56C857D8559
:102B30008E859F8520E030E040E251E40E94151B25
:102B4000DC01CB01BC01CD010E943F19DC01CB01AE
:102B50009F838E830FC088EC90E09D838C838C8153
:102B60009D810197F1F79D838C838E819F810197D1
:102B70009F838E838E819F81009769F724C068852B
:102B800079858A859B850E943F19DC01CB019F8353
:102B90008E838E819F819B838A838A819B8101970B
:102BA000F1F79B838A830FC069897A898B899C8915
:102BB0000E943F19DC01CB01888B88898983898138
:102BC0008A95F1F78983898D8F5F898F898D282F69
:102BD00030E08A8D9B8DFC01E20FF31F80818823FA
:102BE00009F028CF6B960FB6F894DEBF0FBECDBFAD
:102BF000CF91DF910895DF93CF9300D000D0CDB770
:102C0000DEB78A836B838B81882329F48A81982F8E
:102C100090589C8304C08A81982F90549C838C8107
:102C2000898389810E94240B0F900F900F900F9041
:102C3000CF91DF910895DF93CF9300D000D0CDB72F
:102C4000DEB789836A838981282F30E03C832B8318
:102C50008B819C818130910509F443C02B813C819B
:102C6000223031052CF48B819C81009771F0BCC01F
:102C70002B813C812230310509F45FC08B819C811E
:102C80008330910509F485C0AFC08A8182958F7029
:102C9000982F917080E064E0492F0E94AA068A81F3
:102CA000829586958770982F917080E065E0492F16
:102CB0000E94AA068A818295869586958370982FB0
:102CC000917080E066E0492F0E94AA068A81982FC1
:102CD000991F9927991F80E067E0492F0E94AA0653
:102CE00083C08A8182958F70982F917081E064E013
:102CF000492F0E94AA068A81829586958770982F0F
:102D0000917081E065E0492F0E94AA068A81829530
:102D1000869586958370982F917081E066E0492FA3
:102D20000E94AA068A81982F991F9927991F81E0EE
:102D300067E0492F0E94AA0657C08A8182958F704A
:102D4000982F917082E064E0492F0E94AA068A8140
:102D5000829586958770982F917082E065E0492F63
:102D60000E94AA068A818295869586958370982FFF
:102D7000917082E066E0492F0E94AA068A81982F0E
:102D8000991F9927991F82E067E0492F0E94AA06A0
:102D90002BC08A8182958F70982F917083E064E0B8
:102DA000492F0E94AA068A81829586958770982F5E
:102DB000917083E065E0492F0E94AA068A8182957E
:102DC000869586958370982F917083E066E0492FF1
:102DD0000E94AA068A81982F991F9927991F83E03C
:102DE00067E0492F0E94AA060F900F900F900F9056
:102DF000CF91DF910895DF93CF9300D000D0CDB76E
:102E0000DEB789836A838A818295807F8A838981FC
:102E1000282F30E03C832B838B819C81813091056E
:102E200009F443C02B813C81223031052CF48B8185
:102E30009C81009771F0BCC02B813C812230310510
:102E400009F45FC08B819C818330910509F485C0B2
:102E5000AFC08A8182958F70982F917080E064E076
:102E6000492F0E94AA068A81829586958770982F9D
:102E7000917080E065E0492F0E94AA068A818295C0
:102E8000869586958370982F917080E066E0492F33
:102E90000E94AA068A81982F991F9927991F80E07E
:102EA00067E0492F0E94AA0683C08A8182958F70AD
:102EB000982F917081E064E0492F0E94AA068A81D0
:102EC000829586958770982F917081E065E0492FF3
:102ED0000E94AA068A818295869586958370982F8E
:102EE000917081E066E0492F0E94AA068A81982F9E
:102EF000991F9927991F81E067E0492F0E94AA0630
:102F000057C08A8182958F70982F917082E064E01B
:102F1000492F0E94AA068A81829586958770982FEC
:102F2000917082E065E0492F0E94AA068A8182950D
:102F3000869586958370982F917082E066E0492F80
:102F40000E94AA068A81982F991F9927991F82E0CB
:102F500067E0492F0E94AA062BC08A8182958F7054
:102F6000982F917083E064E0492F0E94AA068A811D
:102F7000829586958770982F917083E065E0492F40
:102F80000E94AA068A818295869586958370982FDD
:102F9000917083E066E0492F0E94AA068A81982FEB
:102FA000991F9927991F83E067E0492F0E94AA067D
:102FB0000F900F900F900F90CF91DF910895DF93B6
:102FC000CF9300D00F92CDB7DEB789838981282FA8
:102FD00030E03B832A838A819B8181309105A1F176
:102FE0002A813B81223031052CF48A819B81009714
:102FF00071F080C02A813B812230310509F441C043
:103000008A819B818330910509F458C073C0AAE37B
:10301000B0E0EAE3F0E0808180618C93AAE3B0E065
:10302000EAE3F0E0808180628C93AAE3B0E0EAE317
:10303000F0E0808180648C93AAE3B0E0EAE3F0E002
:10304000808180688C9356C0A7E3B0E0E7E3F0E0AE
:10305000808180618C93A7E3B0E0E7E3F0E08081BA
:1030600080628C93A7E3B0E0E7E3F0E080818064C6
:103070008C93A7E3B0E0E7E3F0E0808180688C9375
:1030800039C0A4E3B0E0E4E3F0E0808180618C9398
:10309000A4E3B0E0E4E3F0E0808180628C93A4E3F9
:1030A000B0E0E4E3F0E0808180648C93A4E3B0E0DE
:1030B000E4E3F0E0808180688C931CC0A1E3B0E081
:1030C000E1E3F0E0808180618C93A1E3B0E0E1E393
:1030D000F0E0808180628C93A1E3B0E0E1E3F0E076
:1030E000808180648C93A1E3B0E0E1E3F0E0808133
:1030F00080688C930F900F900F90CF91DF9108957F
:10310000DF93CF93CDB7DEB727970FB6F894DEBF26
:103110000FBECDBF8F831A8219C08A81482F50E01D
:103120008F819AE0692F0E94F21F892F282FCE01EC
:103130000396FC01E40FF51F20838A818F5F8A8349
:103140008F819AE0692F0E94F21F8F838F818823DD
:1031500021F78A81813019F480E30E9418108A8156
:10316000882321F48DE091E00E940C158A81815022
:10317000898311C08981282F332727FD3095CE01FF
:103180000396FC01E20FF31F8081805D0E941810FE
:103190008981815089838981882364F727960FB6B6
:1031A000F894DEBF0FBECDBFCF91DF910895DF93BE
:1031B000CF93CDB7DEB7AAE2B0E0EAE2F0E08081DB
:1031C00088618C93A0E4B0E0E0E4F0E08081866860
:1031D0008C93E9E2F0E083E38083CF91DF9108955F
:1031E000DF93CF930F92CDB7DEB78983EBE2F0E0A8
:1031F0008081882F90E0807290700097B9F3ECE2A4
:10320000F0E0898180830F90CF91DF910895DF9363
:10321000CF93CDB7DEB7EBE2F0E080818823DCF717
:10322000ECE2F0E08081CF91DF910895DF93CF93BE
:1032300000D00F92CDB7DEB79B838A8319820EC070
:103240008981282F30E08A819B81FC01E20FF31FE6
:1032500080810E94F01889818F5F89838981282F5E
:1032600030E08A819B81FC01E20FF31F808188237B
:1032700039F70F900F900F90CF91DF910895EF9253
:10328000FF920F931F937B018C0120E030E040E020
:103290005FE40E94EB1C88238CF0C801B70120E09A
:1032A00030E040E05FE40E94B71A0E94A91D9B0134
:1032B000AC01205030404040504806C0C801B70122
:1032C0000E94A91D9B01AC01B901CA011F910F9178
:1032D000FF90EF900895A0E0B0E0E1E7F9E10C94F1
:1032E000FE1FDC012B01FA019C91923008F439C1D8
:1032F000EB018881823008F433C1943069F4843062
:1033000009F02FC111969C9111978981981709F4A2
:1033100028C1A0E1B1E025C1843009F421C1823087
:10332000A9F4923009F01DC19A01AD0188E0EA01CB
:103330000990AE01E90109929E018150C1F7E201B5
:10334000898111969C918923818308C1923009F467
:1033500007C112962D903C901397EB018A819B81B7
:103360001496AD90BD90CD90DC901797EC80FD80C9
:103370000E811F819101281B390BB90137FF04C051
:1033800066277727621B730B603271050CF061C0F2
:10339000121613066CF537014801062E04C09694E8
:1033A0008794779467940A94D2F721E030E040E064
:1033B00050E004C0220F331F441F551F6A95D2F7F7
:1033C00021503040404050402E213F214023512386
:1033D000211531054105510521F021E030E040E0A3
:1033E00050E079018A01E628F728082919293CC00C
:1033F000232BD1F1260E371E35014601062E04C0BF
:1034000096948794779467940A94D2F721E030E0F9
:1034100040E050E004C0220F331F441F551F6A953F
:10342000D2F721503040404050402A213B214C21CE
:103430005D21211531054105510521F021E030E0E4
:1034400040E050E059016A01A628B728C828D928C9
:103450000BC0821593052CF01C01AA24BB24650126
:1034600003C0EE24FF24870111969C91D20111968E
:103470008C91981709F445C0992339F0A801970158
:103480002A193B094C095D0906C0A60195012E19B0
:103490003F09400B510B57FD08C011823382228235
:1034A00024833583468357831DC081E08183338223
:1034B000228288279927DC01821B930BA40BB50B72
:1034C00084839583A683B7830DC0220F331F441FC7
:1034D000551F2483358346835783828193810197C7
:1034E000938382832481358146815781DA01C90122
:1034F0000197A109B1098F5F9F4FAF4FBF4328F3D9
:103500000BC0918333822282EA0CFB1C0C1D1D1D13
:10351000E482F5820683178383E0808324813581EA
:103520004681578157FF1AC0C901AA2797FDA09568
:10353000BA2F81709070A070B070569547953795EE
:103540002795822B932BA42BB52B84839583A6835D
:10355000B78382819381019693838283DF0101C0C7
:10356000D201CD01CDB7DEB7E2E10C941A20A0E282
:10357000B0E0EDEBFAE10C940A2069837A838B8347
:103580009C832D833E834F835887E9E0EE2EF12CF8
:10359000EC0EFD1ECE010196B7010E94211F8E0187
:1035A0000F5E1F4FCE010596B8010E94211F8A8928
:1035B00091E089278A8BC701B801AE01475E5F4F52
:1035C0000E946B190E944C1EA096E6E00C942620E7
:1035D000A0E2B0E0EEEEFAE10C940A2069837A836F
:1035E0008B839C832D833E834F835887F9E0EF2E96
:1035F000F12CEC0EFD1ECE010196B7010E94211F99
:103600008E010F5E1F4FCE010596B8010E94211F4B
:10361000C701B801AE01475E5F4F0E946B190E945F
:103620004C1EA096E6E00C942620A0E2B0E0EBE170
:10363000FBE10C94FE1F69837A838B839C832D832B
:103640003E834F835887CE010196BE01675F7F4F4F
:103650000E94211FCE010596BE016F5E7F4F0E9422
:10366000211F9985923088F089898230C8F0943082
:1036700019F4823051F404C0843029F4923081F47A
:1036800080E191E0C6C0923049F420E09A858A89B1
:10369000981321E02A87CE010996BBC0823049F4F5
:1036A00020E09A858A89981321E02A8BCE014196E1
:1036B000B0C02D843E844F8458886D887E888F8862
:1036C000988CEE24FF248701AA24BB24650140E0E6
:1036D00050E060E070E0E0E0F0E0C10181709070E7
:1036E000892BE9F0E60CF71C081D191D9A01AB01A6
:1036F0002A0D3B1D4C1D5D1D80E090E0A0E0B0E078
:10370000E614F7040805190520F481E090E0A0E034
:10371000B0E0BA01A901480F591F6A1F7B1FAA0C0C
:10372000BB1CCC1CDD1C97FE08C081E090E0A0E033
:10373000B0E0A82AB92ACA2ADB2A3196E032F1057C
:1037400049F0660C771C881C991C56944794379452
:103750002794C3CFFA85EA892B893C898B859C8580
:10376000280F391F2E5F3F4F17C0CA01817090701C
:10377000892B61F016950795F794E79480E090E027
:10378000A0E0B0E8E82AF92A0A2B1B2B769567956A
:10379000579547952F5F3F4F77FDE7CF0CC0440FFC
:1037A000551F661F771F17FD4160EE0CFF1C001FA1
:1037B000111F21503040403090E0590790E06907D8
:1037C00090E4790760F32B8F3C8FDB01CA018F7780
:1037D0009070A070B07080349105A105B10561F4BE
:1037E00047FD0AC0E114F1040105110529F0405C10
:1037F0005F4F6F4F7F4F40781A8EFE1711F081E0B8
:103800008A8F4D8F5E8F6F8F78A383E0898FCE0173
:1038100049960E944C1EA096E2E10C941A20A8E161
:10382000B0E0E5E1FCE10C94062069837A838B83A8
:103830009C832D833E834F835887B9E0EB2EF12C78
:10384000EC0EFD1ECE010196B7010E94211F8E01D4
:103850000F5E1F4FCE010596B8010E94211F2985DA
:10386000223008F47EC03989323010F4B8017CC0AF
:103870008A859A8989278A87243011F0223031F489
:10388000231709F06EC060E171E06EC0343039F486
:103890001D861E861F86188A1C861B8604C0323031
:1038A00021F484E08987B7015FC02B853C858B8933
:1038B0009C89281B390B3C872B87ED84FE840F8560
:1038C0001889AD88BE88CF88D88CEA14FB040C0513
:1038D0001D0540F4EE0CFF1C001F111F215030404D
:1038E0003C872B8720E030E040E050E080E090E033
:1038F000A0E0B0E460E070E0EA14FB040C051D05F4
:1039000040F0282B392B4A2B5B2BEA18FB080C09BB
:103910001D09B695A79597958795EE0CFF1C001F7E
:10392000111F6F5F7F4F6F31710531F7DA01C901E8
:103930008F779070A070B07080349105A105B105AB
:1039400061F427FD0AC0E114F1040105110529F015
:10395000205C3F4F4F4F5F4F20782D873E874F872A
:10396000588BBE01675F7F4FCB010E944C1E68964B
:10397000EAE00C942220A8E1B0E0E1ECFCE10C9438
:103980000A2069837A838B839C832D833E834F83B4
:10399000588789E0E82EF12CEC0EFD1ECE01019631
:1039A000B7010E94211F8E010F5E1F4FCE010596A9
:1039B000B8010E94211F8985823040F089898230B8
:1039C00028F0C701B8010E94991F01C08FEF6896C7
:1039D000E6E00C942620A8E1B0E0E1EFFCE10C94D5
:1039E0000A2069837A838B839C832D833E834F8354
:1039F000588789E0E82EF12CEC0EFD1ECE010196D1
:103A0000B7010E94211F8E010F5E1F4FCE01059648
:103A1000B8010E94211F8985823040F08989823057
:103A200028F0C701B8010E94991F01C08FEF689666
:103A3000E6E00C942620A8E1B0E0E1E2FDE10C9480
:103A40000A2069837A838B839C832D833E834F83F3
:103A5000588789E0E82EF12CEC0EFD1ECE01019670
:103A6000B7010E94211F8E010F5E1F4FCE010596E8
:103A7000B8010E94211F8985823040F089898230F7
:103A800028F0C701B8010E94991F01C081E0689623
:103A9000E6E00C942620A8E0B0E0E1E5FDE10C941E
:103AA00007209B01AC0183E08983DA01C9018827E3
:103AB000B7FD83959927AA27BB27B82E2115310575
:103AC0004105510519F482E089833AC08823A9F0A1
:103AD000203080E0380780E0480780E8580729F464
:103AE00060E070E080E09FEC30C0EE24FF248701AE
:103AF000E21AF30A040B150B02C079018A018EE168
:103B0000C82ED12CDC82CB82ED82FE820F831887F7
:103B1000C801B7010E94FD1D01971816190684F40B
:103B2000082E04C0EE0CFF1C001F111F0A94D2F7D0
:103B3000ED82FE820F831887C81AD90ADC82CB82F5
:103B4000BA82CE0101960E944C1E2896E9E00C94A0
:103B50002320ACE0B0E0EFEAFDE10C940E20698395
:103B60007A838B839C83CE010196BE016B5F7F4F6E
:103B70000E94211F8D81823061F1823050F18430AA
:103B800021F48E81882351F12EC02F81388537FD95
:103B900020C06E812F3131051CF06623F9F023C05F
:103BA0008EE190E0821B930B29853A854B855C85DD
:103BB00004C056954795379527958A95D2F7662381
:103BC000B1F050954095309521953F4F4F4F5F4F45
:103BD0000EC020E030E040E050E009C02FEF3FEFA2
:103BE0004FEF5FE704C020E030E040E050E8B9016B
:103BF000CA012C96E2E00C942A20EF92FF920F93D8
:103C00001F937B018C0180E0E81680E0F80681E0DC
:103C1000080780E0180788F48FEFE816F104010523
:103C2000110531F028F088E090E0A0E0B0E017C086
:103C300080E090E0A0E0B0E012C080E0E81680E014
:103C4000F80680E0080781E0180728F088E190E096
:103C5000A0E0B0E004C080E190E0A0E0B0E020E2AD
:103C600030E040E050E0281B390B4A0B5B0B04C0EE
:103C700016950795F794E7948A95D2F7F701E85ED1
:103C8000FE4F8081281B310941095109C9011F914B
:103C90000F91FF90EF900895DF92EF92FF920F93B4
:103CA0001F93FC01E480F58006811781D18080811B
:103CB000823048F480E090E0A0E1B0E0E82AF92A00
:103CC0000A2B1B2BA5C0843009F49FC0823021F43D
:103CD000EE24FF24870105C0E114F104010511055C
:103CE00019F4E0E0F0E096C0628173819FEF6238E2
:103CF00079070CF05BC022E83FEF261B370B2A3117
:103D000031052CF020E030E040E050E02AC0B8015E
:103D1000A701022E04C076956795579547950A949A
:103D2000D2F781E090E0A0E0B0E004C0880F991FD6
:103D3000AA1FBB1F2A95D2F70197A109B1098E21AD
:103D40009F21A023B1230097A105B10521F081E0B7
:103D500090E0A0E0B0E09A01AB01282B392B4A2B70
:103D60005B2BDA01C9018F779070A070B07080343E
:103D70009105A105B10539F427FF09C0205C3F4F2B
:103D80004F4F5F4F04C0215C3F4F4F4F5F4FE0E00C
:103D9000F0E02030A0E03A07A0E04A07A0E45A078C
:103DA00010F0E1E0F0E079018A0127C06038710588
:103DB00064F5FB01E158FF4FD801C7018F77907080
:103DC000A070B07080349105A105B10539F4E7FE0B
:103DD0000DC080E490E0A0E0B0E004C08FE390E08C
:103DE000A0E0B0E0E80EF91E0A1F1B1F17FF05C078
:103DF00016950795F794E794319687E01695079501
:103E0000F794E7948A95D1F705C0EE24FF24870143
:103E1000EFEFF0E06E2F679566276795902F9F77FD
:103E2000D794DD24D7948E2F8695492F462B582F73
:103E30005D29B701CA011F910F91FF90EF90DF90AC
:103E40000895FC01DB01408151812281622F6F774F
:103E500070E0221F2227221F9381892F880F822B37
:103E6000282F30E0991F9927991F11969C9311973D
:103E700021153105A9F5411551056105710511F4AB
:103E800082E037C082E89FEF13969C938E9312973F
:103E90009A01AB0167E0220F331F441F551F6A953B
:103EA000D1F783E08C930DC0220F331F441F551FA1
:103EB00012968D919C911397019713969C938E93D4
:103EC0001297203080E0380780E0480780E45807E8
:103ED00058F314962D933D934D935C931797089543
:103EE0002F3F310579F4411551056105710519F42C
:103EF00084E08C93089564FF03C081E08C9312C02A
:103F00001C9210C02F57304013963C932E9312975B
:103F100083E08C9387E0440F551F661F771F8A95B7
:103F2000D1F7706414964D935D936D937C931797BE
:103F300008951F93DC01FB019C91923008F447C067
:103F40008081823008F443C0943051F411961C9162
:103F5000843099F58181682F70E0611B71093FC041
:103F6000843021F0923031F48230B9F1818188239C
:103F700089F12DC011961C9111978230F1F0818149
:103F80001817D9F412962D913C9113978281938141
:103F90008217930794F028173907BCF014968D9177
:103FA0009D910D90BC91A02D248135814681578132
:103FB000281739074A075B0718F4112341F00AC094
:103FC00082179307A407B50740F4112319F061E0A5
:103FD00070E005C06FEF7FEF02C060E070E0CB01E2
:103FE0001F910895991B79E004C0991F961708F056
:103FF000961B881F7A95C9F7809508952F923F9256
:104000004F925F926F927F928F929F92AF92BF92E8
:10401000CF92DF92EF92FF920F931F93CF93DF9394
:10402000CDB7DEB7CA1BDB0B0FB6F894DEBF0FBEF1
:10403000CDBF09942A88398848885F846E847D843E
:104040008C849B84AA84B984C884DF80EE80FD8040
:104050000C811B81AA81B981CE0FD11D0FB6F894B6
:10406000DEBF0FBECDBFED0108953BD080F09F377E
:1040700040F491110EF44DC060E070E080E89FE3E1
:10408000089526F01B16611D711D811D01C01BC006
:10409000882371F4772321F09850872B762F07C05F
:1040A000662311F499270DC09051862B70E060E0D3
:1040B0002AF09A95660F771F881FDAF7880F969572
:1040C000879597F908959F3F31F0915020F4879597
:1040D00077956795B795880F911D9695879597F970
:1040E0000895D0D0A0F0BEE7B91788F4BB279F3859
:1040F00060F41616B11D672F782F8827985FF7CFC9
:10410000869577956795B11D93959639C8F308956F
:10411000E894BB2766277727CB0197F90895FA0122
:10412000EE0FFF1F30962105310599F161157105DC
:1041300061F48038BFE39B0749F1689490388105AA
:1041400061F08038BFEF9B0741F0992342F5FF3FB4
:10415000E1053105210511F1E8940894E795D901AD
:10416000AA2329F4AB2FBE2FF85FD0F310C0FF5F56
:1041700070F4A695E0F7F73950F019F0FF3A38F4EB
:104180009F779F930CD00F9007FC905808953EF0B6
:1041900049C060E070E080E89FE308954FE79F77B3
:1041A0005F934F933F932F93C9D02F913F914F919E
:1041B0005F913BDA05C019F40EF02EC0A9CF32C0D2
:1041C00061D0C8F39638C0F707F80F92E8942BE354
:1041D0003AEA48EB5FE731D10F920F920F924DB759
:1041E0005EB70F92EBD0E4E5F0E01FD04F915F9106
:1041F000EF91FF91E595EE1FFF1F49F0FE57E06834
:104200004427EE0F441FFA95E1F74195550B5DD019
:104210000F9007FE51C0089597F99F6780E870E0FE
:1042200060E008959FEF80EC0895DF93CF931F9394
:104230000F93FF92EF92DF927B018C01689405C08F
:10424000DA2EEF01F8D0FE01E894A5912591359181
:1042500045915591AEF3EF0152D1FE019701A801AE
:10426000DA9479F7DF90EF90FF900F911F91CF9143
:10427000DF91089557FD9058440F551F59F05F3F47
:1042800071F04795880F97FB991F61F09F3F79F078
:1042900087950895121613061406551FF2CF4695FA
:1042A000F1DF08C0161617061806991FF1CF86957C
:1042B00071056105089408959B01AC0160E070E010
:1042C00080E89FE3ACCAA8CFFECEDCDFE8F39923F9
:1042D000D9F3940F511DBBF39150504094F059F015
:1042E000882332F0660F771F881F91505040C1F726
:1042F0009E3F510544F7880F911D9695879597F934
:1043000008955F3FACF0983E9CF0BB27869577956B
:104310006795B79508F4B1609395C1F7BB0F58F74F
:1043200011F460FFE8CF6F5F7F4F8F4F9F4FE3CF58
:10433000F0CE0EF0C8CE76CF68946ECFA3DFC8F370
:104340009923D1F3C6F3DF93CF931F930F93FF927B
:10435000C92FDD2788232AF02197660F771F881F32
:10436000DAF720E030E040E85FEB9FE3883920F0A7
:10437000803E30F021968F772BD9ECE7F0E003C038
:1043800027D9E9EAF0E051DF8B01BE01EC01FB2EF9
:104390006F5771097595771F880B990B7CDB28E1A6
:1043A00032E741E35FE347D0AF2D9801AE01FF90C4
:1043B0000F911F91CF91DF91A2D002C1FA01DC01D0
:1043C000AA0FBB1F9B01AC01BF5728F4222733273C
:1043D000442750781FC0B75188F4AB2F002446956E
:1043E00037952795011CA395D2F3002069F0220F81
:1043F000331F441FB395DAF30DD0B9C8613071058E
:10440000A0E88A07B94630F49B01AC0166277727FC
:1044100088279078309621F020833183428353831C
:104420000895C0D028F0C5D018F0952309F0F4CE37
:10443000F9CE11246ECE1EDFA0F3959FD1F3950F18
:1044400050E0551F629FF001729FBB27F00DB11D18
:10445000639FAA27F00DB11DAA1F649F6627B00DA8
:10446000A11D661F829F2227B00DA11D621F739F91
:10447000B00DA11D621F839FA00D611D221F749F9F
:104480003327A00D611D231F849F600D211D822FE6
:10449000762F6A2F11249F5750408AF0E1F088232D
:1044A0004AF0EE0FFF1FBB1F661F771F881F91503A
:1044B0005040A9F79E3F510570F0AECE2ACE5F3F27
:1044C000ECF3983EDCF3869577956795B795F7956D
:1044D000E7959F5FC1F7FE2B880F911D96958795F5
:1044E00097F908955FD030F064D020F031F49F3F09
:1044F00011F41EF497CE0EF4E095E7FB8DCEE92F74
:10450000B9DE80F3BA17620773078407950718F0BE
:1045100071F49EF5FDCD0EF4E0950B2EBA2FA02D73
:104520000B01B90190010C01CA01A0011124FF2760
:10453000591B99F0593F50F4503E68F11A16F0405B
:10454000A22F232F342F4427585FF3CF469537955A
:104550002795A795F0405395C9F77EF41F16BA0B1F
:10456000620B730B840BBAF09150A1F0FF0FBB1FCD
:10457000661F771F881FC2F70EC0BA0F621F731F16
:10458000841F48F4879577956795B795F7959E3F73
:1045900008F0B3CF9395880F08F09927EE0F979501
:1045A0008795089500240A9416161706180609061A
:1045B000089500240A941216130614060506089599
:1045C000092E0394000C11F4882352F0BB0F40F421
:1045D000BF2B11F460FF04C06F5F7F4F8F4F9F4F61
:0645E0000895F894FFCFDE
:1045E60041414141414141414141410042424242F2
:1045F60042424242424242424242420054696D6550
:10460600200020414D00000000004673703A303013
:104616002546206469723A202B30300054696D6556
:104626002030303A30303A303020414D00312E20A3
:104636004443204D6F746F72207B00202C20007D38
:1046460000322E2053746570706572204D6F746F42
:1046560072207B00533A00206469723A2000496E4A
:1046660076616C6964204461746120466F726D6185
:104676007420757365207468697320666F726D6146
:10468600742028585858415959424529003030005D
:104696000000000000000000000102020303030303
:1046A60004040404040404040505050505050505BC
:1046B600050505050505050506060606060606069C
:1046C6000606060606060606060606060606060684
:1046D600060606060606060607070707070707076C
:1046E6000707070707070707070707070707070754
:1046F6000707070707070707070707070707070744
:104706000707070707070707070707070707070733
:10471600070707070707070708080808080808081B
:104726000808080808080808080808080808080803
:1047360008080808080808080808080808080808F3
:1047460008080808080808080808080808080808E3
:1047560008080808080808080808080808080808D3
:1047660008080808080808080808080808080808C3
:1047760008080808080808080808080808080808B3
:1047860008080808080808080808080808080808A3
:084796000808080808080808DB
:00000001FF
