:100000000C946B000C9488000C9488000C9488006D
:100010000C9488000C9488000C9488000C94880040
:100020000C9488000C9494060C9488000C9488001E
:100030000C9488000C9488000C9488000C94880020
:100040000C9488000C9488000C9488000C94880010
:100050000C94880007634236B79BD8A71A396856B4
:1000600018AEBAAB558C1D3CB7CC5763BD6DEDFDDA
:10007000753EF6177231BF000000803F0800000097
:10008000BE922449123EABAAAA2ABECDCCCC4C3E8D
:1000900000000080BEABAAAAAA3E00000000BF007C
:1000A0000000803F0000000000084178D3BB438778
:1000B000D1133D190E3CC3BD4282AD2B3E68EC828C
:1000C00076BED98FE1A93E4C80EFFFBE01C4FF7F11
:1000D0003F000000000011241FBECFE5D8E0DEBFC6
:1000E000CDBF11E0A0E6B0E0E4E6FBE402C005907D
:1000F0000D92AC3FB107D9F711E0ACEFB1E001C010
:100100001D92AF3FB107E1F70E94E6060C94B025BF
:100110000C940000DF93CF9300D00F92CDB7DEB7E1
:100120009B838A83198203C089818F5F8983898138
:10013000282F30E08A819B81FC01E20FF31F808130
:10014000882391F789810F900F900F90CF91DF91C5
:100150000895AF92BF92CF92DF92EF92FF920F93EA
:100160001F93DF93CF93CDB7DEB761970FB6F894A7
:10017000DEBF0FBECDBF8A877C876B875E874D87CA
:10018000388B2F878A85883009F04FC18B859C85F5
:10019000FC0137968081853409F047C180E090E00A
:1001A000A0E0B0E08B839C83AD83BE83198265C0E1
:1001B0008981282F30E08B859C85FC01E20FF31F9D
:1001C0008081803308F457C08981282F30E08B85E7
:1001D0009C85FC01E20FF31F80818A3308F04BC03D
:1001E000AB80BC80CD80DE808981282F30E08B857C
:1001F0009C85FC01E20FF31F8081882F90E0C0975F
:10020000AA2797FDA095BA2FBC01CD010E940A2014
:100210007B018C018981282F30E082E090E0821BF5
:10022000930BAA2797FDA095BA2FBC01CD010E9480
:100230000A209B01AC0160E070E080E291E40E9442
:100240004E23DC01CB019C01AD01C801B7010E9426
:10025000D41DDC01CB019C01AD01C601B5010E949A
:10026000A71DDC01CB018B839C83AD83BE83898179
:100270008F5F898302C0198AD9C08981833008F4CD
:1002800097CF8981282F30E08B859C85FC01E20F78
:10029000F31F8081863469F08981282F30E08B85B7
:1002A0009C85FC01E20FF31F8081823411F0198AD2
:1002B000BDC08981282F30E08B859C85FC01E20F31
:1002C000F31F80818F83188684E089836FC08981C2
:1002D000282F30E08B859C85FC01E20FF31F808185
:1002E000803308F461C08981282F30E08B859C859C
:1002F000FC01E20FF31F80818A3308F055C0888526
:10030000882F90E0AA2797FDA095BA2FBC01CD01B8
:100310000E940A205B016C018981282F30E08B85C7
:100320009C85FC01E20FF31F8081882F90E0C0972D
:10033000AA2797FDA095BA2FBC01CD010E940A20E3
:100340007B018C018981282F30E085E090E0821BC1
:10035000930BAA2797FDA095BA2FBC01CD010E944F
:100360000A209B01AC0160E070E080E291E40E9411
:100370004E239B01AC01C801B7010E94D41DDC01D2
:10038000CB019C01AD01C601B5010E94A71DDC0196
:10039000CB01BC01CD010E94FE1BDC01CB01888793
:1003A00089818F5F898302C0198A40C08981863024
:1003B00008F48DCF8981282F30E08B859C85FC0146
:1003C000E20FF31F80818C3469F08981282F30E09F
:1003D0008B859C85FC01E20FF31F8081823511F033
:1003E000198A24C08981282F30E08B859C85FC01E7
:1003F000E20FF31F808189878B819C81AD81BE8153
:10040000ED85FE8580839183A283B3838F81ED8503
:10041000FE8584838885EF85F88980838985EF85CB
:10042000F889818381E0898B01C0198A8989619665
:100430000FB6F894DEBF0FBECDBFCF91DF911F91F5
:100440000F91FF90EF90DF90CF90BF90AF90089505
:10045000DF93CF93CDB7DEB7EA970FB6F894DEBF40
:100460000FBECDBF8AAF19AE1BC280E064E040E092
:100470000E94B50980E065E040E00E94B50980E097
:1004800066E041E00E94B50980E067E041E00E943B
:10049000B50980E090E0AAE7B4E48DAB9EABAFABCA
:1004A000B8AF6DA97EA98FA998AD20E030E04AEFE2
:1004B00054E40E94D41DDC01CB0189AB9AABABABF9
:1004C000BCAB69A97AA98BA99CA920E030E040E8DF
:1004D0005FE30E94DA1F88232CF481E090E098AB60
:1004E0008FA73FC069A97AA98BA99CA920E03FEFFB
:1004F0004FE757E40E947A1F18164CF56DA97EA9A4
:100500008FA998AD20E030E040E251E40E94D41D74
:10051000DC01CB01BC01CD010E94FE1BDC01CB0143
:1005200098AB8FA70FC088EC90E09EA78DA78DA5F4
:100530009EA50197F1F79EA78DA78FA598A9019772
:1005400098AB8FA78FA598A9009769F714C069A9E0
:100550007AA98BA99CA90E94FE1BDC01CB0198AB58
:100560008FA78FA598A99CA78BA78BA59CA5019762
:10057000F1F79CA78BA780E064E040E00E94B509FA
:1005800080E065E041E00E94B50980E066E041E07E
:100590000E94B50980E067E040E00E94B50980E074
:1005A00090E0AAE7B4E48FA398A7A9A7BAA76FA180
:1005B00078A589A59AA520E030E04AEF54E40E948E
:1005C000D41DDC01CB018BA39CA3ADA3BEA36BA167
:1005D0007CA18DA19EA120E030E040E85FE30E9475
:1005E000DA1F88232CF481E090E09AA389A33FC00E
:1005F0006BA17CA18DA19EA120E03FEF4FE757E4C6
:100600000E947A1F18164CF56FA178A589A59AA5A6
:1006100020E030E040E251E40E94D41DDC01CB0137
:10062000BC01CD010E94FE1BDC01CB019AA389A372
:100630000FC088EC90E098A38F8F8F8D98A10197C1
:10064000F1F798A38F8F89A19AA101979AA389A303
:1006500089A19AA1009769F714C06BA17CA18DA113
:100660009EA10E94FE1BDC01CB019AA389A389A154
:100670009AA19E8F8D8F8D8D9E8D0197F1F79E8F04
:100680008D8F80E064E041E00E94B50980E065E084
:1006900041E00E94B50980E066E040E00E94B509B3
:1006A00080E067E040E00E94B50980E090E0AAE7C2
:1006B000B4E4898F9A8FAB8FBC8F698D7A8D8B8DC7
:1006C0009C8D20E030E04AEF54E40E94D41DDC0110
:1006D000CB018D8B9E8BAF8BB88F6D897E898F8977
:1006E000988D20E030E040E85FE30E94DA1F882325
:1006F0002CF481E090E09C8B8B8B3FC06D897E89D0
:100700008F89988D20E03FEF4FE757E40E947A1FD2
:1007100018164CF5698D7A8D8B8D9C8D20E030E01C
:1007200040E251E40E94D41DDC01CB01BC01CD01AB
:100730000E94FE1BDC01CB019C8B8B8B0FC088ECD5
:1007400090E09A8B898B89899A890197F1F79A8B26
:10075000898B8B899C8901979C8B8B8B8B899C893E
:10076000009769F714C06D897E898F89988D0E94E2
:10077000FE1BDC01CB019C8B8B8B8B899C89988B1E
:100780008F878F8598890197F1F7988B8F8780E005
:1007900064E041E00E94B50980E065E040E00E942D
:1007A000B50980E066E040E00E94B50980E067E0BE
:1007B00041E00E94B50980E090E0AAE7B4E48B87AD
:1007C0009C87AD87BE876B857C858D859E8520E067
:1007D00030E04AEF54E40E94D41DDC01CB018F834A
:1007E0009887A987BA876F81788589859A8520E05F
:1007F00030E040E85FE30E94DA1F88232CF481E0B8
:1008000090E09E838D833FC06F81788589859A852E
:1008100020E03FEF4FE757E40E947A1F18164CF58F
:100820006B857C858D859E8520E030E040E251E43B
:100830000E94D41DDC01CB01BC01CD010E94FE1B36
:10084000DC01CB019E838D830FC088EC90E09C83FC
:100850008B838B819C810197F1F79C838B838D81A6
:100860009E8101979E838D838D819E81009769F77C
:1008700014C06F81788589859A850E94FE1BDC01F2
:10088000CB019E838D838D819E819A83898389810B
:100890009A810197F1F79A83898389AD8F5F89AF38
:1008A00099AD8AAD981708F4E0CDEA960FB6F894A2
:1008B000DEBF0FBECDBFCF91DF910895DF93CF9301
:1008C000CDB7DEB7EA970FB6F894DEBF0FBECDBF47
:1008D0008AAF19AE1BC280E064E041E00E94B50916
:1008E00080E065E041E00E94B50980E066E040E01C
:1008F0000E94B50980E067E040E00E94B50980E011
:1009000090E0AAE7B4E48DAB9EABAFABB8AF6DA9F6
:100910007EA98FA998AD20E030E04AEF54E40E9410
:10092000D41DDC01CB0189AB9AABABABBCAB69A9E5
:100930007AA98BA99CA920E030E040E85FE30E94FF
:10094000DA1F88232CF481E090E098AB8FA73FC09A
:1009500069A97AA98BA99CA920E03FEF4FE757E44A
:100960000E947A1F18164CF56DA97EA98FA998AD23
:1009700020E030E040E251E40E94D41DDC01CB01D4
:10098000BC01CD010E94FE1BDC01CB0198AB8FA7FF
:100990000FC088EC90E09EA78DA78DA59EA501971E
:1009A000F1F79EA78DA78FA598A9019798AB8FA760
:1009B0008FA598A9009769F714C069A97AA98BA98E
:1009C0009CA90E94FE1BDC01CB0198AB8FA78FA5D1
:1009D00098A99CA78BA78BA59CA50197F1F79CA72D
:1009E0008BA780E064E040E00E94B50980E065E00C
:1009F00041E00E94B50980E066E041E00E94B5094F
:100A000080E067E040E00E94B50980E090E0AAE75E
:100A1000B4E48FA398A7A9A7BAA76FA178A589A5C1
:100A20009AA520E030E04AEF54E40E94D41DDC0196
:100A3000CB018BA39CA3ADA3BEA36BA17CA18DA175
:100A40009EA120E030E040E85FE30E94DA1F8823A7
:100A50002CF481E090E09AA389A33FC06BA17CA114
:100A60008DA19EA120E03FEF4FE757E40E947A1F3F
:100A700018164CF56FA178A589A59AA520E030E05D
:100A800040E251E40E94D41DDC01CB01BC01CD0148
:100A90000E94FE1BDC01CB019AA389A30FC088EC46
:100AA00090E098A38F8F8F8D98A10197F1F798A36D
:100AB0008F8F89A19AA101979AA389A389A19AA14D
:100AC000009769F714C06BA17CA18DA19EA10E9423
:100AD000FE1BDC01CB019AA389A389A19AA19E8F59
:100AE0008D8F8D8D9E8D0197F1F79E8F8D8F80E07C
:100AF00064E040E00E94B50980E065E040E00E94CB
:100B0000B50980E066E041E00E94B50980E067E059
:100B100041E00E94B50980E090E0AAE7B4E4898F43
:100B20009A8FAB8FBC8F698D7A8D8B8D9C8D20E0D9
:100B300030E04AEF54E40E94D41DDC01CB018D8BE0
:100B40009E8BAF8BB88F6D897E898F89988D20E0C1
:100B500030E040E85FE30E94DA1F88232CF481E054
:100B600090E09C8B8B8B3FC06D897E898F89988D9F
:100B700020E03FEF4FE757E40E947A1F18164CF52C
:100B8000698D7A8D8B8D9C8D20E030E040E251E4C0
:100B90000E94D41DDC01CB01BC01CD010E94FE1BD3
:100BA000DC01CB019C8B8B8B0FC088EC90E09A8B87
:100BB000898B89899A890197F1F79A8B898B8B891F
:100BC0009C8901979C8B8B8B8B899C89009769F7FB
:100BD00014C06D897E898F89988D0E94FE1BDC016F
:100BE000CB019C8B8B8B8B899C89988B8F878F8576
:100BF00098890197F1F7988B8F8780E064E041E056
:100C00000E94B50980E065E040E00E94B50980E0FF
:100C100066E040E00E94B50980E067E041E00E94A4
:100C2000B50980E090E0AAE7B4E48B879C87AD87A4
:100C3000BE876B857C858D859E8520E030E04AEF00
:100C400054E40E94D41DDC01CB018F839887A987CF
:100C5000BA876F81788589859A8520E030E040E801
:100C60005FE30E94DA1F88232CF481E090E09E83EA
:100C70008D833FC06F81788589859A8520E03FEF1D
:100C80004FE757E40E947A1F18164CF56B857C8558
:100C90008D859E8520E030E040E251E40E94D41D25
:100CA000DC01CB01BC01CD010E94FE1BDC01CB01AC
:100CB0009E838D830FC088EC90E09C838B838B8117
:100CC0009C810197F1F79C838B838D819E81019795
:100CD0009E838D838D819E81009769F714C06F81FB
:100CE000788589859A850E94FE1BDC01CB019E8355
:100CF0008D838D819E819A83898389819A810197D1
:100D0000F1F79A83898389AD8F5F89AF99AD8AADF9
:100D1000981708F4E0CDEA960FB6F894DEBF0FBE40
:100D2000CDBFCF91DF9108951F920F920FB60F9212
:100D300011248F93DF93CF93CDB7DEB78091FD0160
:100D40008F5F8093FD018091FD018C3338F080919D
:100D5000FC018F5F8093FC011092FD018091FC01EA
:100D60008C3338F08091FE018F5F8093FE011092EA
:100D7000FC01CF91DF918F910F900FBE0F901F90CC
:100D80001895DF93CF93CDB7DEB780E061E00E9486
:100D9000BA1880E690E00E9417188091FE010E9428
:100DA0003F1B8AE30E9423138091FC010E943F1B9A
:100DB0008AE30E9423138091FD010E943F1B86E677
:100DC00090E00E941718CF91DF9108950F931F9321
:100DD000DF93CF93CDB7DEB76A970FB6F894DEBF37
:100DE0000FBECDBFECE4F0E08EEE95E891838083FA
:100DF000A9E5B0E0E9E5F0E0808184608C93EEE461
:100E0000F0E084E08083A7E3B0E0E7E3F0E08081F6
:100E100088608C93E3E5F0E082E680830E94890D90
:100E20000E94961BCE010E969F8B8E8BEAE6F0E019
:100E3000F98FE88FF5E0FA8FE88DF98D0080888DC5
:100E4000998D0196998F888FEE89FF8900828E890E
:100E50009F8901969F8B8E8B9A8D91509A8FEA8DE8
:100E6000EE2351F78DE28B8B82E58C8B1B8283E026
:100E700066E041E00E94C30883E067E041E00E9431
:100E8000C30881E061E041E00E94C30881E062E0C4
:100E900041E00E94C30880E064E041E00E94C30892
:100EA00080E065E041E00E94C30880E066E041E048
:100EB0000E94C30880E067E041E00E94C30881E02F
:100EC00061E040E00E94B50981E062E041E00E94FB
:100ED000B5090CE510E08E859F85A889B989BC010C
:100EE000CD0123E333E343E250E40E94D41DDC014F
:100EF000CB01BC01CD010E94F422DC01CB01BC017D
:100F0000CD010E94FE1BDC01CB01F80180838FE63E
:100F100090E00E94171880E061E00E94BA188FE705
:100F200090E00E94171878940E94C61B8C838C81D5
:100F30000E94AF1B8C818D3009F00DC19E012B5F8B
:100F40003F4FAE01425F5F4FFE0173968B81B90147
:100F50009F010E94A900813009F0E8C080E990E07B
:100F60000E94D51B1A821A820EC08A81282F30E077
:100F7000CE010596FC01E20FF31F80810E94AF1B9A
:100F80008A818F5F8A838A81833078F385E20E9429
:100F9000AF1B8EE990E00E94D51B88850E94AF1B95
:100FA00082EA90E00E94D51B8DE00E94AF1B84EA8C
:100FB00090E00E94D51B84E08A830EC08A81282F8E
:100FC00030E0CE010596FC01E20FF31F80810E9404
:100FD000AF1B8A818F5F8A838A81863078F38EE99E
:100FE00090E00E94D51B8B850E94AF1B82EA90E0A7
:100FF0000E94D51B8DE00E94AF1B81E00E942F0E46
:1010000087EB90E00E9417188D81803319F08D8155
:101010000E94231381E089830EC08981282F30E04C
:10102000CE010596FC01E20FF31F80810E9423137D
:1010300089818F5F89838981833078F385E20E947B
:1010400023138BEB90E00E9417188C898C3421F4C9
:101050008DE20E94231303C08BE20E94231384E0DD
:1010600089830EC08981282F30E0CE010596FC01CE
:10107000E20FF31F80810E94231389818F5F898390
:101080008981863078F30E94C10683E066E041E002
:101090000E94B50983E067E040E00E94B5098A89B3
:1010A000823459F481E061E041E00E94B50981E0B9
:1010B00062E040E00E94B5090DC08A89863451F48F
:1010C00081E061E040E00E94B50981E062E041E03A
:1010D0000E94B5090CE510E08E859F85A889B98925
:1010E000BC01CD0123E333E343E250E40E94D41D6D
:1010F000DC01CB01BC01CD010E94F422DC01CB015B
:10110000BC01CD010E94FE1BDC01CB01F8018083F4
:101110008C898C3421F48B890E945E0418C08C89E0
:101120008235A9F48B890E94280211C083E066E011
:1011300040E00E94B50983E067E041E00E94B50904
:1011400082EC90E00E94D51B8DE00E94AF1B1B82B9
:101150008EE48C8715C08B81282F30E0CE01059658
:10116000FC01E20FF31F8C8180838B818B3028F48C
:101170008B81F82FFF5FFD8B01C01D8A8D898B83CA
:101180000E94C106D1CEDF93CF9300D000D000D013
:10119000CDB7DEB78A836B834C8381E089838A81F4
:1011A000843030F48B81883018F48C81823010F0D8
:1011B0001982D1C08A81282F30E03E832D838D8112
:1011C0009E818130910509F443C02D813E812230FA
:1011D00031052CF48D819E81009771F0BCC02D816A
:1011E0003E812230310509F45FC08D819E818330BC
:1011F000910509F485C0AFC08C818823A9F4AAE3C6
:10120000B0E0EAE3F0E08081482F8B81282F30E0C6
:1012100081E090E0022E02C0880F991F0A94E2F745
:10122000809584238C9397C0AAE3B0E0EAE3F0E0D2
:101230008081482F8B81282F30E081E090E0022EC2
:1012400002C0880F991F0A94E2F7842B8C9383C005
:101250008C818823A9F4A7E3B0E0E7E3F0E0808184
:10126000482F8B81282F30E081E090E0022E02C0D1
:10127000880F991F0A94E2F7809584238C936BC0A2
:10128000A7E3B0E0E7E3F0E08081482F8B81282FCF
:1012900030E081E090E0022E02C0880F991F0A948E
:1012A000E2F7842B8C9357C08C818823A9F4A4E3A4
:1012B000B0E0E4E3F0E08081482F8B81282F30E01C
:1012C00081E090E0022E02C0880F991F0A94E2F795
:1012D000809584238C933FC0A4E3B0E0E4E3F0E086
:1012E0008081482F8B81282F30E081E090E0022E12
:1012F00002C0880F991F0A94E2F7842B8C932BC0AD
:101300008C818823A9F4A1E3B0E0E1E3F0E08081DF
:10131000482F8B81282F30E081E090E0022E02C020
:10132000880F991F0A94E2F7809584238C9313C049
:10133000A1E3B0E0E1E3F0E08081482F8B81282F2A
:1013400030E081E090E0022E02C0880F991F0A94DD
:10135000E2F7842B8C93898126960FB6F894DEBF32
:101360000FBECDBFCF91DF910895DF93CF9300D013
:1013700000D000D0CDB7DEB78A836B834C8381E089
:1013800089838A81843030F48B81883018F48C8191
:10139000823008F019828A81282F30E03E832D8325
:1013A0008D819E818130910509F443C02D813E815C
:1013B000223031052CF48D819E81009771F0BCC0E4
:1013C0002D813E812230310509F45FC08D819E81DF
:1013D0008330910509F485C0AFC08C818823A9F4BE
:1013E000ABE3B0E0EBE3F0E08081482F8B81282F66
:1013F00030E081E090E0022E02C0880F991F0A942D
:10140000E2F7809584238C9397C0ABE3B0E0EBE3E5
:10141000F0E08081482F8B81282F30E081E090E040
:10142000022E02C0880F991F0A94E2F7842B8C9336
:1014300083C08C818823A9F4A8E3B0E0E8E3F0E05E
:101440008081482F8B81282F30E081E090E0022EB0
:1014500002C0880F991F0A94E2F7809584238C9329
:101460006BC0A8E3B0E0E8E3F0E08081482F8B8117
:10147000282F30E081E090E0022E02C0880F991FF3
:101480000A94E2F7842B8C9357C08C818823A9F4AB
:10149000A5E3B0E0E5E3F0E08081482F8B81282FC1
:1014A00030E081E090E0022E02C0880F991F0A947C
:1014B000E2F7809584238C933FC0A5E3B0E0E5E399
:1014C000F0E08081482F8B81282F30E081E090E090
:1014D000022E02C0880F991F0A94E2F7842B8C9386
:1014E0002BC08C818823A9F4A2E3B0E0E2E3F0E012
:1014F0008081482F8B81282F30E081E090E0022E00
:1015000002C0880F991F0A94E2F7809584238C9378
:1015100013C0A2E3B0E0E2E3F0E08081482F8B81CA
:10152000282F30E081E090E0022E02C0880F991F42
:101530000A94E2F7842B8C93898126960FB6F8944F
:10154000DEBF0FBECDBFCF91DF910895DF93CF9364
:1015500000D000D000D0CDB7DEB78A836B8381E0A6
:1015600089838A81843018F48B81883008F019824D
:101570008A81282F30E03E832D834D815E8141306A
:10158000510549F18D819E818230910534F42D8180
:101590003E812115310561F057C04D815E81423099
:1015A000510561F18D819E8183309105D1F14CC04F
:1015B000E9E3F0E08081282F30E08B81882F90E0F4
:1015C000A90102C0559547958A95E2F7CA01582F9F
:1015D00051705C833BC0E6E3F0E08081282F30E06F
:1015E0008B81882F90E0A90102C0559547958A9577
:1015F000E2F7CA01582F51705C8328C0E3E3F0E0A2
:101600008081282F30E08B81882F90E0A90102C0D3
:10161000559547958A95E2F7CA01582F51705C831A
:1016200015C0E0E3F0E08081282F30E08B81882F27
:1016300090E0A90102C0559547958A95E2F7CA0145
:10164000582F51705C8302C089818C838C812696CF
:101650000FB6F894DEBF0FBECDBFCF91DF910895D6
:10166000DF93CF9300D000D0CDB7DEB78A8381E07F
:1016700089838A81843008F019828A81282F30E09A
:101680003C832B838B819C8181309105D1F02B8110
:101690003C81223031052CF48B819C81009761F0D4
:1016A0001EC02B813C812230310581F08B819C81D1
:1016B0008330910581F013C0EAE3F0E08FEF80837F
:1016C0000EC0E7E3F0E08FEF808309C0E4E3F0E0D1
:1016D0008FEF808304C0E1E3F0E08FEF80838981A6
:1016E0000F900F900F900F90CF91DF910895DF939F
:1016F000CF9300D000D00F92CDB7DEB78A836B8333
:1017000081E089838A81843008F019828A81282FB8
:1017100030E03D832C838C819D8181309105D1F017
:101720002C813D81223031052CF48C819D810097E4
:1017300061F01EC02C813D812230310581F08C8109
:101740009D818330910581F013C0EBE3F0E08B8144
:1017500080830EC0E8E3F0E08B81808309C0E5E37D
:10176000F0E08B81808304C0E2E3F0E08B81808332
:1017700089810F900F900F900F900F90CF91DF9174
:101780000895EF920F93DF93CF93CDB7DEB72897ED
:101790000FB6F894DEBF0FBECDBF89836A834B833B
:1017A0002C830D83EE828981282F30E038872F83A8
:1017B0008F8198858130910509F443C02F81388548
:1017C000223031052CF48F819885009771F0BCC0D0
:1017D0002F8138852230310509F45FC08F819885CB
:1017E0008330910509F485C0AFC08A81982F991F75
:1017F0009927991F80E06E81492F0E94B5098A813F
:101800008295869586958370982F917080E06D8182
:10181000492F0E94B5098A81829586958770982FF5
:10182000917080E06C81492F0E94B5098A81829570
:101830008F70982F917080E06B81492F0E94B509BD
:1018400083C08A81982F991F9927991F81E06E8103
:10185000492F0E94B5098A81829586958695837065
:10186000982F917081E06D81492F0E94B5098A817E
:10187000829586958770982F917081E06C81492FB1
:101880000E94B5098A8182958F70982F917081E0AE
:101890006B81492F0E94B50957C08A81982F991FE3
:1018A0009927991F82E06E81492F0E94B5098A818C
:1018B0008295869586958370982F917082E06D81D0
:1018C000492F0E94B5098A81829586958770982F45
:1018D000917082E06C81492F0E94B5098A818295BE
:1018E0008F70982F917082E06B81492F0E94B5090B
:1018F0002BC08A81982F991F9927991F83E06E81A9
:10190000492F0E94B5098A818295869586958370B4
:10191000982F917083E06D81492F0E94B5098A81CB
:10192000829586958770982F917083E06C81492FFE
:101930000E94B5098A8182958F70982F917083E0FB
:101940006B81492F0E94B50928960FB6F894DEBF27
:101950000FBECDBFCF91DF910F91EF900895EF9221
:101960000F93DF93CF93CDB7DEB728970FB6F894D8
:10197000DEBF0FBECDBF89836A834B832C830D836B
:10198000EE828981282F30E038872F838F819885D8
:101990008130910509F43EC02F8138852230310510
:1019A0002CF48F819885009771F0A8C02F8138851D
:1019B0002230310509F455C08F8198858330910517
:1019C00009F476C09BC08A81869586958695982F66
:1019D000917080E06E81492F0E94B5098A818695B9
:1019E0008695982F917080E06D81492F0E94B509EE
:1019F0008A818695982F917080E06C81492F0E9492
:101A0000B5098A81982F917080E06B81492F0E94DF
:101A1000B50974C08A81869586958695982F9170B0
:101A200081E06E81492F0E94B5098A81869586954D
:101A3000982F917081E06D81492F0E94B5098A81AC
:101A40008695982F917081E06C81492F0E94B5098D
:101A50008A81982F917081E06B81492F0E94B5098E
:101A60004DC08A81869586958695982F917082E0E3
:101A70006E81492F0E94B5098A8186958695982F97
:101A8000917082E06D81492F0E94B5098A81869507
:101A9000982F917082E06C81492F0E94B5098A814C
:101AA000982F917082E06B81492F0E94B50926C062
:101AB0008A81869586958695982F917083E06E81B0
:101AC000492F0E94B5098A8186958695982F917035
:101AD00083E06D81492F0E94B5098A818695982FF0
:101AE000917083E06C81492F0E94B5098A81982FFB
:101AF000917083E06B81492F0E94B50928960FB63B
:101B0000F894DEBF0FBECDBFCF91DF910F91EF9064
:101B10000895DF93CF93CDB7DEB72E970FB6F89425
:101B2000DEBF0FBECDBF80E060E041E00E94C30891
:101B300080E061E041E00E94C30880E062E041E0B3
:101B40000E94C30881E00E949E1A83E30E942F0E28
:101B500082E30E942F0E88E20E942F0E8EE00E94E8
:101B60002F0E81E00E942F0E80E090E0A0E0B0E414
:101B70008B879C87AD87BE876B857C858D859E8591
:101B800020E030E04AEF54E40E94D41DDC01CB0198
:101B90008F839887A987BA876F81788589859A8589
:101BA00020E030E040E85FE30E94DA1F88232CF455
:101BB00081E090E09E838D833FC06F817885898529
:101BC0009A8520E03FEF4FE757E40E947A1F1816EE
:101BD0004CF56B857C858D859E8520E030E040E26C
:101BE00051E40E94D41DDC01CB01BC01CD010E9457
:101BF000FE1BDC01CB019E838D830FC088EC90E03F
:101C00009C838B838B819C810197F1F79C838B83D1
:101C10008D819E8101979E838D838D819E8100970A
:101C200069F714C06F81788589859A850E94FE1BAB
:101C3000DC01CB019E838D838D819E819A83898374
:101C400089819A810197F1F79A8389832E960FB63D
:101C5000F894DEBF0FBECDBFCF91DF9108950F93F3
:101C60001F93DF93CF93CDB7DEB7C957D0400FB6E0
:101C7000F894DEBF0FBECDBFFE01E758FF4F808353
:101C800080E060E040E00E94B50980E061E040E073
:101C90000E94B509FE01E758FF4F81E060810E9474
:101CA000DA1880E062E041E00E94B509FE01EB58DD
:101CB000FF4F80E090E0A0E8BFE380839183A283A0
:101CC000B3838E010F581F4FFE01EB58FF4F608109
:101CD0007181828193812BEA3AEA4AE250E40E94C0
:101CE000D41DDC01CB01F80180839183A283B383EF
:101CF000FE01EF58FF4F608171818281938120E066
:101D000030E040E85FE30E94DA1F882334F4FE01EC
:101D1000E059FF4F81E08083E0C0FE01EF58FF4FA4
:101D2000608171818281938120E030E04FE753E44C
:101D30000E947A1F18160CF0C0C0FE01EB58FF4F2E
:101D4000608171818281938120E030E04AE754E430
:101D50000E94CE1EDC01CB01FE01E459FF4F8083BF
:101D60009183A283B3838E0108591F4FFE01E4596A
:101D7000FF4F608171818281938120E030E04AEFE2
:101D800054E40E94D41DDC01CB01F80180839183CF
:101D9000A283B383FE01E859FF4F60817181828184
:101DA000938120E030E040E85FE30E94DA1F88235F
:101DB00044F4FE01EA59FF4F81E090E09183808373
:101DC00064C0FE01E859FF4F608171818281938177
:101DD00020E03FEF4FE757E40E947A1F18160CF0FF
:101DE00043C0FE01E459FF4F60817181828193817C
:101DF00020E030E040E251E40E94D41DDC01CB0140
:101E00008E010A591F4FBC01CD010E94FE1BDC014F
:101E1000CB01F801918380831FC0FE01EC59FF4F75
:101E200088EC90E091838083FE01EC59FF4F808124
:101E300091810197F1F7FE01EC59FF4F9183808367
:101E4000DE01AA59BF4FFE01EA59FF4F80819181FF
:101E5000019711969C938E93FE01EA59FF4F808162
:101E600091810097D1F64BC08E010A591F4FFE0198
:101E7000E859FF4F60817181828193810E94FE1B2E
:101E8000DC01CB01F80191838083DE01AE59BF4FA5
:101E9000FE01EA59FF4F8081918111969C938E93A8
:101EA000FE01EE59FF4F808191810197F1F7FE010C
:101EB000EE59FF4F9183808322C08E0100591F4F3E
:101EC000FE01EF58FF4F60817181828193810E94F2
:101ED000FE1BDC01CB01F8018083DE01AF59BF4F4F
:101EE000FE01E059FF4F80818C93FE01EF59FF4FB7
:101EF00080818A95F1F7FE01EF59FF4F808380E0E2
:101F000062E040E00E94B509FE01E35AFF4F80E025
:101F100090E0A0E8BFE380839183A283B3838E0126
:101F2000075A1F4FFE01E35AFF4F60817181828182
:101F300093812BEA3AEA4AE250E40E94D41DDC0184
:101F4000CB01F80180839183A283B383FE01E75A1A
:101F5000FF4F608171818281938120E030E040E811
:101F60005FE30E94DA1F882334F4FE01E85AFF4F32
:101F700081E08083E0C0FE01E75AFF4F60817181FC
:101F80008281938120E030E04FE753E40E947A1F82
:101F900018160CF0C0C0FE01E35AFF4F608171813A
:101FA0008281938120E030E04AE754E40E94CE1E13
:101FB000DC01CB01FE01EC5AFF4F80839183A283A9
:101FC000B3838E01005B1F4FFE01EC5AFF4F60810F
:101FD00071818281938120E030E04AEF54E40E94D5
:101FE000D41DDC01CB01F80180839183A283B383EC
:101FF000FE01E05BFF4F608171818281938120E06F
:1020000030E040E85FE30E94DA1F882344F4FE01D9
:10201000E25BFF4F81E090E09183808364C0FE012A
:10202000E05BFF4F608171818281938120E03FEF0F
:102030004FE757E40E947A1F18160CF043C0FE01C8
:10204000EC5AFF4F608171818281938120E030E002
:1020500040E251E40E94D41DDC01CB018E01025B01
:102060001F4FBC01CD010E94FE1BDC01CB01F8011A
:10207000918380831FC0FE01E45BFF4F88EC90E0FA
:1020800091838083FE01E45BFF4F80819181019702
:10209000F1F7FE01E45BFF4F91838083DE01A25BD9
:1020A000BF4FFE01E25BFF4F808191810197119646
:1020B0009C938E93FE01E25BFF4F8081918100979C
:1020C000D1F64BC08E01025B1F4FFE01E05BFF4F5C
:1020D00060817181828193810E94FE1BDC01CB01B2
:1020E000F80191838083DE01A65BBF4FFE01E25BB6
:1020F000FF4F8081918111969C938E93FE01E65B48
:10210000FF4F808191810197F1F7FE01E65BFF4F60
:102110009183808322C08E01085A1F4FFE01E75A27
:10212000FF4F60817181828193810E94FE1BDC01DF
:10213000CB01F8018083DE01A75BBF4FFE01E85AA7
:10214000FF4F80818C93FE01E75BFF4F80818A9572
:10215000F1F7FE01E75BFF4F8083FE01E758FF4F79
:1021600081E060810E94BA1980E062E041E00E9453
:10217000B509FE01EB5BFF4F80E090E0A0E8BFE314
:1021800080839183A283B3838E010F5B1F4FFE0177
:10219000EB5BFF4F60817181828193812BEA3AEA88
:1021A0004AE250E40E94D41DDC01CB01F801808397
:1021B0009183A283B383FE01EF5BFF4F6081718146
:1021C0008281938120E030E040E85FE30E94DA1FE3
:1021D000882334F481E0FE01E05CFF4F80839DC0E2
:1021E000FE01EF5BFF4F608171818281938120E06E
:1021F00030E04FE753E40E947A1F18160CF07EC0BF
:10220000FE01EB5BFF4F608171818281938120E051
:1022100030E04AE754E40E94CE1EDC01CB018CAFD3
:102220009DAFAEAFBFAF6CAD7DAD8EAD9FAD20E0CD
:1022300030E04AEF54E40E94D41DDC01CB0188AFAA
:1022400099AFAAAFBBAF68AD79AD8AAD9BAD20E0C9
:1022500030E040E85FE30E94DA1F88232CF481E03D
:1022600090E09FAB8EAB3FC068AD79AD8AAD9BADC2
:1022700020E03FEF4FE757E40E947A1F18164CF515
:102280006CAD7DAD8EAD9FAD20E030E040E251E41D
:102290000E94D41DDC01CB01BC01CD010E94FE1BBC
:1022A000DC01CB019FAB8EAB0FC088EC90E09DAB07
:1022B0008CAB8CA99DA90197F1F79DAB8CAB8EA936
:1022C0009FA901979FAB8EAB8EA99FA9009769F735
:1022D0002DC068AD79AD8AAD9BAD0E94FE1BDC01BF
:1022E000CB019FAB8EAB8EA99FA99BAB8AAB8AA972
:1022F0009BA90197F1F79BAB8AAB18C0FE01EF5B7E
:10230000FF4F60817181828193810E94FE1BDC01FD
:10231000CB01FE01E05CFF4F8083FE01E05CFF4FDC
:10232000808189AB89A98A95F1F789AB80E062E069
:1023300040E00E94B50980E090E0A0E8BFE38DA7EF
:102340009EA7AFA7B8AB6DA57EA58FA598A92BEAD0
:102350003AEA4AE250E40E94D41DDC01CB0189A78D
:102360009AA7ABA7BCA769A57AA58BA59CA520E0D9
:1023700030E040E85FE30E94DA1F88231CF481E02C
:1023800088A791C069A57AA58BA59CA520E030E01F
:102390004FE753E40E947A1F18160CF07BC06DA51E
:1023A0007EA58FA598A920E030E04AE754E40E947A
:1023B000CE1EDC01CB018CA39DA3AEA3BFA36CA159
:1023C0007DA18EA19FA120E030E04AEF54E40E945D
:1023D000D41DDC01CB0188A399A3AAA3BBA368A148
:1023E00079A18AA19BA120E030E040E85FE30E9450
:1023F000DA1F88232CF481E090E09F8F8E8F3FC0FE
:1024000068A179A18AA19BA120E03FEF4FE757E4A3
:102410000E947A1F18164CF56CA17DA18EA19FA178
:1024200020E030E040E251E40E94D41DDC01CB0109
:10243000BC01CD010E94FE1BDC01CB019F8F8E8F62
:102440000FC088EC90E09D8F8C8F8C8D9D8D0197B7
:10245000F1F79D8F8C8F8E8D9F8D01979F8F8E8F23
:102460008E8D9F8D009769F724C068A179A18AA1FC
:102470009BA10E94FE1BDC01CB019F8F8E8F8E8D56
:102480009F8D9B8F8A8F8A8D9B8D0197F1F79B8FF4
:102490008A8F0FC069A57AA58BA59CA50E94FE1BFB
:1024A000DC01CB0188A788A5898F898D8A95F1F7F2
:1024B000898F80E090E0A8ECB2E48D8B9E8BAF8B8F
:1024C000B88F6D897E898F89988D2BEA3AEA4AE226
:1024D00050E40E94D41DDC01CB01898B9A8BAB8B1D
:1024E000BC8B69897A898B899C8920E030E040E83F
:1024F0005FE30E94DA1F88231CF481E0888B91C07F
:1025000069897A898B899C8920E030E04FE753E420
:102510000E947A1F18160CF07BC06D897E898F8906
:10252000988D20E030E04AE754E40E94CE1EDC01A2
:10253000CB018C879D87AE87BF876C857D858E8517
:102540009F8520E030E04AEF54E40E94D41DDC0176
:10255000CB0188879987AA87BB87688579858A8513
:102560009B8520E030E040E85FE30E94DA1F88238B
:102570002CF481E090E09F838E833FC0688579854D
:102580008A859B8520E03FEF4FE757E40E947A1F42
:1025900018164CF56C857D858E859F8520E030E092
:1025A00040E251E40E94D41DDC01CB01BC01CD010D
:1025B0000E94FE1BDC01CB019F838E830FC088EC41
:1025C00090E09D838C838C819D810197F1F79D83A1
:1025D0008C838E819F8101979F838E838E819F81C3
:1025E000009769F724C0688579858A859B850E9454
:1025F000FE1BDC01CB019F838E838E819F819B8399
:102600008A838A819B810197F1F79B838A830FC01C
:1026100069897A898B899C890E94FE1BDC01CB0128
:10262000888B8889898389818A95F1F78983C7583E
:10263000DF4F0FB6F894DEBF0FBECDBFCF91DF9155
:102640001F910F9108950F931F93DF93CF93CDB7F1
:10265000DEB7C957D0400FB6F894DEBF0FBECDBF6E
:10266000FE01E758FF4F808380E060E041E00E9478
:10267000B50980E061E040E00E94B509FE01E7583D
:10268000FF4F81E060810E94DA1880E062E041E063
:102690000E94B509FE01EB58FF4F80E090E0A0E8F2
:1026A000BFE380839183A283B3838E010F581F4FB2
:1026B000FE01EB58FF4F60817181828193812BEA8B
:1026C0003AEA4AE250E40E94D41DDC01CB01F80151
:1026D00080839183A283B383FE01EF58FF4F608113
:1026E00071818281938120E030E040E85FE30E94C5
:1026F000DA1F882334F4FE01E059FF4F81E0808324
:10270000E0C0FE01EF58FF4F6081718182819381AB
:1027100020E030E04FE753E40E947A1F18160CF0D7
:10272000C0C0FE01EB58FF4F6081718182819381AF
:1027300020E030E04AE754E40E94CE1EDC01CB01E9
:10274000FE01E459FF4F80839183A283B3838E01FE
:1027500008591F4FFE01E459FF4F6081718182814A
:10276000938120E030E04AEF54E40E94D41DDC0164
:10277000CB01F80180839183A283B383FE01E859E2
:10278000FF4F608171818281938120E030E040E8D9
:102790005FE30E94DA1F882344F4FE01EA59FF4FE9
:1027A00081E090E09183808364C0FE01E859FF4F8F
:1027B000608171818281938120E03FEF4FE757E490
:1027C0000E947A1F18160CF043C0FE01E459FF4F17
:1027D000608171818281938120E030E040E251E4A8
:1027E0000E94D41DDC01CB018E010A591F4FBC0190
:1027F000CD010E94FE1BDC01CB01F8019183808397
:102800001FC0FE01EC59FF4F88EC90E0918380835C
:10281000FE01EC59FF4F808191810197F1F7FE0194
:10282000EC59FF4F91838083DE01AA59BF4FFE010F
:10283000EA59FF4F80819181019711969C938E9365
:10284000FE01EA59FF4F808191810097D1F64BC07C
:102850008E010A591F4FFE01E859FF4F60817181B7
:10286000828193810E94FE1BDC01CB01F8019183E0
:102870008083DE01AE59BF4FFE01EA59FF4F8081D0
:10288000918111969C938E93FE01EE59FF4F8081AA
:1028900091810197F1F7FE01EE59FF4F91838083FB
:1028A00022C08E0100591F4FFE01EF58FF4F60817B
:1028B0007181828193810E94FE1BDC01CB01F801B2
:1028C0008083DE01AF59BF4FFE01E059FF4F808189
:1028D0008C93FE01EF59FF4F80818A95F1F7FE013D
:1028E000EF59FF4F808380E062E040E00E94B5092D
:1028F000FE01E35AFF4F80E090E0A0E8BFE3808351
:102900009183A283B3838E01075A1F4FFE01E35ABE
:10291000FF4F60817181828193812BEA3AEA4AE21A
:1029200050E40E94D41DDC01CB01F8018083918327
:10293000A283B383FE01E75AFF4F608171818281D8
:10294000938120E030E040E85FE30E94DA1F8823B3
:1029500034F4FE01E85AFF4F81E08083E0C0FE01BD
:10296000E75AFF4F608171818281938120E030E0DE
:102970004FE753E40E947A1F18160CF0C0C0FE0106
:10298000E35AFF4F608171818281938120E030E0C2
:102990004AE754E40E94CE1EDC01CB01FE01EC5A52
:1029A000FF4F80839183A283B3838E01005B1F4F0F
:1029B000FE01EC5AFF4F608171818281938120E09A
:1029C00030E04AEF54E40E94D41DDC01CB01F80151
:1029D00080839183A283B383FE01E05BFF4F60811C
:1029E00071818281938120E030E040E85FE30E94C2
:1029F000DA1F882344F4FE01E25BFF4F81E090E0A0
:102A00009183808364C0FE01E05BFF4F6081718130
:102A10008281938120E03FEF4FE757E40E947A1FC5
:102A200018160CF043C0FE01EC5AFF4F6081718113
:102A30008281938120E030E040E251E40E94D41D85
:102A4000DC01CB018E01025B1F4FBC01CD010E9456
:102A5000FE1BDC01CB01F801918380831FC0FE01C6
:102A6000E45BFF4F88EC90E091838083FE01E45BA0
:102A7000FF4F808191810197F1F7FE01E45BFF4FE9
:102A800091838083DE01A25BBF4FFE01E25BFF4FBB
:102A900080819181019711969C938E93FE01E25B58
:102AA000FF4F808191810097D1F64BC08E01025B70
:102AB0001F4FFE01E05BFF4F608171818281938136
:102AC0000E94FE1BDC01CB01F80191838083DE01B3
:102AD000A65BBF4FFE01E25BFF4F808191811196A3
:102AE0009C938E93FE01E65BFF4F8081918101975D
:102AF000F1F7FE01E65BFF4F9183808322C08E01D8
:102B0000085A1F4FFE01E75AFF4F60817181828191
:102B100093810E94FE1BDC01CB01F8018083DE0162
:102B2000A75BBF4FFE01E85AFF4F80818C93FE01E7
:102B3000E75BFF4F80818A95F1F7FE01E75BFF4F6E
:102B40008083FE01E758FF4F81E060810E94BA193F
:102B500080E062E041E00E94B509FE01EB5BFF4FBF
:102B600080E090E0A0E8BFE380839183A283B383F9
:102B70008E010F5B1F4FFE01EB5BFF4F6081718188
:102B8000828193812BEA3AEA4AE250E40E94D41D02
:102B9000DC01CB01F80180839183A283B383FE0122
:102BA000EF5BFF4F608171818281938120E030E093
:102BB00040E85FE30E94DA1F882334F481E0FE01DD
:102BC000E05CFF4F80839DC0FE01EF5BFF4F6081A3
:102BD00071818281938120E030E04FE753E40E94CD
:102BE0007A1F18160CF07EC0FE01EB5BFF4F608170
:102BF00071818281938120E030E04AE754E40E94B1
:102C0000CE1EDC01CB018CAF9DAFAEAFBFAF6CADC4
:102C10007DAD8EAD9FAD20E030E04AEF54E40E94E0
:102C2000D41DDC01CB0188AF99AFAAAFBBAF68ADB3
:102C300079AD8AAD9BAD20E030E040E85FE30E94D3
:102C4000DA1F88232CF481E090E09FAB8EAB3FC06D
:102C500068AD79AD8AAD9BAD20E03FEF4FE757E41B
:102C60000E947A1F18164CF56CAD7DAD8EAD9FADF0
:102C700020E030E040E251E40E94D41DDC01CB01B1
:102C8000BC01CD010E94FE1BDC01CB019FAB8EABD2
:102C90000FC088EC90E09DAB8CAB8CA99DA90197EF
:102CA000F1F79DAB8CAB8EA99FA901979FAB8EAB23
:102CB0008EA99FA9009769F72DC068AD79AD8AAD3F
:102CC0009BAD0E94FE1BDC01CB019FAB8EAB8EA99E
:102CD0009FA99BAB8AAB8AA99BA90197F1F79BABF4
:102CE0008AAB18C0FE01EF5BFF4F6081718182816A
:102CF00093810E94FE1BDC01CB01FE01E05CFF4FD3
:102D00008083FE01E05CFF4F808189AB89A98A95B1
:102D1000F1F789AB80E062E040E00E94B50980E015
:102D200090E0A0E8BFE38DA79EA7AFA7B8AB6DA5C5
:102D30007EA58FA598A92BEA3AEA4AE250E40E94C0
:102D4000D41DDC01CB0189A79AA7ABA7BCA769A5B5
:102D50007AA58BA59CA520E030E040E85FE30E94C7
:102D6000DA1F88231CF481E088A791C069A57AA5A1
:102D70008BA59CA520E030E04FE753E40E947A1F2A
:102D800018160CF07BC06DA57EA58FA598A920E034
:102D900030E04AE754E40E94CE1EDC01CB018CA354
:102DA0009DA3AEA3BFA36CA17DA18EA19FA120E096
:102DB00030E04AEF54E40E94D41DDC01CB0188A32B
:102DC00099A3AAA3BBA368A179A18AA19BA120E092
:102DD00030E040E85FE30E94DA1F88232CF481E0B2
:102DE00090E09F8F8E8F3FC068A179A18AA19BA19F
:102DF00020E03FEF4FE757E40E947A1F18164CF58A
:102E00006CA17DA18EA19FA120E030E040E251E4C1
:102E10000E94D41DDC01CB01BC01CD010E94FE1B30
:102E2000DC01CB019F8F8E8F0FC088EC90E09D8FCF
:102E30008C8F8C8D9D8D0197F1F79D8F8C8F8E8D52
:102E40009F8D01979F8F8E8F8E8D9F8D009769F735
:102E500024C068A179A18AA19BA10E94FE1BDC016C
:102E6000CB019F8F8E8F8E8D9F8D9B8F8A8F8A8DAA
:102E70009B8D0197F1F79B8F8A8F0FC069A57AA56B
:102E80008BA59CA50E94FE1BDC01CB0188A788A511
:102E9000898F898D8A95F1F7898F80E090E0A8EC81
:102EA000B2E48D8B9E8BAF8BB88F6D897E898F89B5
:102EB000988D2BEA3AEA4AE250E40E94D41DDC01E4
:102EC000CB01898B9A8BAB8BBC8B69897A898B8977
:102ED0009C8920E030E040E85FE30E94DA1F88230D
:102EE0001CF481E0888B91C069897A898B899C89DF
:102EF00020E030E04FE753E40E947A1F18160CF0F0
:102F00007BC06D897E898F89988D20E030E04AE70B
:102F100054E40E94CE1EDC01CB018C879D87AE87D6
:102F2000BF876C857D858E859F8520E030E04AEFE8
:102F300054E40E94D41DDC01CB0188879987AA87BD
:102F4000BB87688579858A859B8520E030E040E8ED
:102F50005FE30E94DA1F88232CF481E090E09F83D6
:102F60008E833FC0688579858A859B8520E03FEF09
:102F70004FE757E40E947A1F18164CF56C857D8543
:102F80008E859F8520E030E040E251E40E94D41D10
:102F9000DC01CB01BC01CD010E94FE1BDC01CB0199
:102FA0009F838E830FC088EC90E09D838C838C81FF
:102FB0009D810197F1F79D838C838E819F8101977D
:102FC0009F838E838E819F81009769F724C06885D7
:102FD00079858A859B850E94FE1BDC01CB019F833E
:102FE0008E838E819F819B838A838A819B810197B7
:102FF000F1F79B838A830FC069897A898B899C89C1
:103000000E94FE1BDC01CB01888B88898983898122
:103010008A95F1F78983C758DF4F0FB6F894DEBF62
:103020000FBECDBFCF91DF911F910F910895DF9318
:10303000CF93CDB7DEB761970FB6F894DEBF0FBE62
:10304000CDBF998B888B1F8680C08F85282F30E05D
:1030500088899989FC01E20FF31F80810E94231364
:1030600080E090E0A0E8BFE38B879C87AD87BE87B8
:103070006B857C858D859E8520E030E04AEF54E4A9
:103080000E94D41DDC01CB018F839887A987BA8762
:103090006F81788589859A8520E030E040E85FE39C
:1030A0000E94DA1F88232CF481E090E09E838D83B8
:1030B0003FC06F81788589859A8520E03FEF4FE793
:1030C00057E40E947A1F18164CF56B857C858D8518
:1030D0009E8520E030E040E251E40E94D41DDC01F6
:1030E000CB01BC01CD010E94FE1BDC01CB019E8304
:1030F0008D830FC088EC90E09C838B838B819C81B7
:103100000197F1F79C838B838D819E8101979E832C
:103110008D838D819E81009769F714C06F817885BA
:1031200089859A850E94FE1BDC01CB019E838D83DD
:103130008D819E819A83898389819A810197F1F794
:103140009A8389838F858F5F8F878F85282F30E0C3
:1031500088899989FC01E20FF31F8081882309F097
:1031600074CF61960FB6F894DEBF0FBECDBFCF917E
:10317000DF910895DF93CF9300D000D0CDB7DEB7B5
:103180008A836B838B81882329F48A81982F9058B6
:103190009C8304C08A81982F90549C838C8189835E
:1031A00089810E942F0E0F900F900F900F90CF915A
:1031B000DF910895DF93CF9300D000D0CDB7DEB775
:1031C00089836A838981282F30E03C832B838B811C
:1031D0009C818130910509F443C02B813C812230D0
:1031E00031052CF48B819C81009771F0BCC02B8140
:1031F0003C812230310509F45FC08B819C81833092
:10320000910509F485C0AFC08A8182958F70982F8F
:10321000917080E064E0492F0E94B5098A8182950F
:1032200086958770982F917080E065E0492F0E9405
:10323000B5098A818295869586958370982F9170BD
:1032400080E066E0492F0E94B5098A81982F991F76
:103250009927991F80E067E0492F0E94B50983C034
:103260008A8182958F70982F917081E064E0492F58
:103270000E94B5098A81829586958770982F9170F2
:1032800081E065E0492F0E94B5098A818295869583
:1032900086958370982F917081E066E0492F0E9497
:1032A000B5098A81982F991F9927991F81E067E0B6
:1032B000492F0E94B50957C08A8182958F70982F37
:1032C000917082E064E0492F0E94B5098A8182955D
:1032D00086958770982F917082E065E0492F0E9453
:1032E000B5098A818295869586958370982F91700D
:1032F00082E066E0492F0E94B5098A81982F991FC4
:103300009927991F82E067E0492F0E94B5092BC0D9
:103310008A8182958F70982F917083E064E0492FA5
:103320000E94B5098A81829586958770982F917041
:1033300083E065E0492F0E94B5098A8182958695D0
:1033400086958370982F917083E066E0492F0E94E4
:10335000B5098A81982F991F9927991F83E067E003
:10336000492F0E94B5090F900F900F900F90CF91A9
:10337000DF910895DF93CF9300D000D0CDB7DEB7B3
:1033800089836A838A818295807F8A838981282FB5
:1033900030E03C832B838B819C818130910509F443
:1033A00043C02B813C81223031052CF48B819C81E0
:1033B000009771F0BCC02B813C812230310509F4AB
:1033C0005FC08B819C818330910509F485C0AFC0BB
:1033D0008A8182958F70982F917080E064E0492FE8
:1033E0000E94B5098A81829586958770982F917081
:1033F00080E065E0492F0E94B5098A818295869513
:1034000086958370982F917080E066E0492F0E9426
:10341000B5098A81982F991F9927991F80E067E045
:10342000492F0E94B50983C08A8182958F70982F99
:10343000917081E064E0492F0E94B5098A818295EC
:1034400086958770982F917081E065E0492F0E94E2
:10345000B5098A818295869586958370982F91709B
:1034600081E066E0492F0E94B5098A81982F991F53
:103470009927991F81E067E0492F0E94B50957C03D
:103480008A8182958F70982F917082E064E0492F35
:103490000E94B5098A81829586958770982F9170D0
:1034A00082E065E0492F0E94B5098A818295869560
:1034B00086958370982F917082E066E0492F0E9474
:1034C000B5098A81982F991F9927991F82E067E093
:1034D000492F0E94B5092BC08A8182958F70982F41
:1034E000917083E064E0492F0E94B5098A8182953A
:1034F00086958770982F917083E065E0492F0E9430
:10350000B5098A818295869586958370982F9170EA
:1035100083E066E0492F0E94B5098A81982F991FA0
:103520009927991F83E067E0492F0E94B5090F9002
:103530000F900F900F90CF91DF910895DF93CF936D
:1035400000D00F92CDB7DEB789838981282F30E074
:103550003B832A838A819B8181309105A1F12A8155
:103560003B81223031052CF48A819B81009771F0D8
:1035700080C02A813B812230310509F441C08A8113
:103580009B818330910509F458C073C0AAE3B0E071
:10359000EAE3F0E0808180618C93AAE3B0E0EAE3A3
:1035A000F0E0808180628C93AAE3B0E0EAE3F0E08F
:1035B000808180648C93AAE3B0E0EAE3F0E080814C
:1035C00080688C9356C0A7E3B0E0E7E3F0E0808129
:1035D00080618C93A7E3B0E0E7E3F0E08081806254
:1035E0008C93A7E3B0E0E7E3F0E0808180648C9304
:1035F000A7E3B0E0E7E3F0E0808180688C9339C016
:10360000A4E3B0E0E4E3F0E0808180618C93A4E384
:10361000B0E0E4E3F0E0808180628C93A4E3B0E06A
:10362000E4E3F0E0808180648C93A4E3B0E0E4E321
:10363000F0E0808180688C931CC0A1E3B0E0E1E3FE
:10364000F0E0808180618C93A1E3B0E0E1E3F0E001
:10365000808180628C93A1E3B0E0E1E3F0E08081BF
:1036600080648C93A1E3B0E0E1E3F0E080818068C6
:103670008C930F900F900F90CF91DF910895DF936F
:10368000CF93CDB7DEB727970FB6F894DEBF0FBE46
:10369000CDBF8F831A8219C08A81482F50E08F8155
:1036A0009AE0692F0E94B122892F282FCE0103961C
:1036B000FC01E40FF51F20838A818F5F8A838F814D
:1036C0009AE0692F0E94B1228F838F81882321F78E
:1036D0008A81813019F480E30E9423138A81882330
:1036E00021F481EF90E00E9417188A81815089832C
:1036F00011C08981282F332727FD3095CE010396ED
:10370000FC01E20FF31F8081805D0E9423138981F9
:10371000815089838981882364F727960FB6F894AE
:10372000DEBF0FBECDBFCF91DF910895DF93CF9362
:10373000CDB7DEB7AAE2B0E0EAE2F0E080818861CE
:103740008C93A0E4B0E0E0E4F0E0808186688C93A4
:10375000E9E2F0E083E38083CF91DF910895DF9386
:10376000CF930F92CDB7DEB78983EBE2F0E0808193
:10377000882F90E0807290700097B9F3ECE2F0E04F
:10378000898180830F90CF91DF910895DF93CF934C
:10379000CDB7DEB7EBE2F0E080818823DCF7ECE226
:1037A000F0E08081CF91DF910895DF93CF9300D037
:1037B0000F92CDB7DEB79B838A8319820EC08981B1
:1037C000282F30E08A819B81FC01E20FF31F80816A
:1037D0000E94AF1B89818F5F89838981282F30E008
:1037E0008A819B81FC01E20FF31F8081882339F7D6
:1037F0000F900F900F90CF91DF910895EF92FF926D
:103800000F931F937B018C0120E030E040E05FE4E8
:103810000E94AA1F88238CF0C801B70120E030E085
:1038200040E05FE40E94761D0E9468209B01AC018D
:10383000205030404040504806C0C801B7010E94A7
:1038400068209B01AC01B901CA011F910F91FF9043
:10385000EF900895A0E0B0E0E0E3FCE10C94BD221D
:10386000DC012B01FA019C91923008F439C1EB0183
:103870008881823008F433C1943069F4843009F0CF
:103880002FC111969C9111978981981709F428C12D
:10389000A4EFB0E025C1843009F421C18230A9F43D
:1038A000923009F01DC19A01AD0188E0EA0109904A
:1038B000AE01E90109929E018150C1F7E2018981BF
:1038C00011969C918923818308C1923009F407C124
:1038D00012962D903C901397EB018A819B81149650
:1038E000AD90BD90CD90DC901797EC80FD800E815F
:1038F0001F819101281B390BB90137FF04C06627CE
:103900007727621B730B603271050CF061C01216D1
:1039100013066CF537014801062E04C0969487946F
:10392000779467940A94D2F721E030E040E050E0C9
:1039300004C0220F331F441F551F6A95D2F7215030
:103940003040404050402E213F214023512321153B
:1039500031054105510521F021E030E040E050E023
:1039600079018A01E628F728082919293CC0232B68
:10397000D1F1260E371E35014601062E04C096945D
:103980008794779467940A94D2F721E030E040E07E
:1039900050E004C0220F331F441F551F6A95D2F711
:1039A00021503040404050402A213B214C215D2194
:1039B000211531054105510521F021E030E040E0BD
:1039C00050E059016A01A628B728C828D9280BC099
:1039D000821593052CF01C01AA24BB24650103C0A9
:1039E000EE24FF24870111969C91D20111968C91AF
:1039F000981709F445C0992339F0A80197012A19AD
:103A00003B094C095D0906C0A60195012E193F0925
:103A1000400B510B57FD08C0118233822282248350
:103A20003583468357831DC081E0818333822282A0
:103A300088279927DC01821B930BA40BB50B848389
:103A40009583A683B7830DC0220F331F441F551FD4
:103A5000248335834683578382819381019793839F
:103A600082832481358146815781DA01C90101971A
:103A7000A109B1098F5F9F4FAF4FBF4328F30BC020
:103A8000918333822282EA0CFB1C0C1D1D1DE482F3
:103A9000F5820683178383E0808324813581468104
:103AA000578157FF1AC0C901AA2797FDA095BA2FC1
:103AB00081709070A070B070569547953795279596
:103AC000822B932BA42BB52B84839583A683B7835A
:103AD00082819381019693838283DF0101C0D201A9
:103AE000CD01CDB7DEB7E2E10C94D922A0E2B0E07F
:103AF000ECE7FDE10C94C92269837A838B839C8374
:103B00002D833E834F835887E9E0EE2EF12CEC0E97
:103B1000FD1ECE010196B7010E94E0218E010F5ECD
:103B20001F4FCE010596B8010E94E0218A8991E0DD
:103B300089278A8BC701B801AE01475E5F4F0E949B
:103B40002A1C0E940B21A096E6E00C94E522A0E23C
:103B5000B0E0EDEAFDE10C94C92269837A838B839E
:103B60009C832D833E834F835887F9E0EF2EF12C01
:103B7000EC0EFD1ECE010196B7010E94E0218E01E0
:103B80000F5E1F4FCE010596B8010E94E021C701CC
:103B9000B801AE01475E5F4F0E942A1C0E940B21B4
:103BA000A096E6E00C94E522A0E2B0E0EAEDFDE1AB
:103BB0000C94BD2269837A838B839C832D833E83FF
:103BC0004F835887CE010196BE01675F7F4F0E94E9
:103BD000E021CE010596BE016F5E7F4F0E94E0217D
:103BE0009985923088F089898230C8F0943019F430
:103BF000823051F404C0843029F4923081F484EF8F
:103C000090E0C6C0923049F420E09A858A899813E2
:103C100021E02A87CE010996BBC0823049F420E01A
:103C20009A858A89981321E02A8BCE014196B0C0EB
:103C30002D843E844F8458886D887E888F88988C28
:103C4000EE24FF248701AA24BB24650140E050E054
:103C500060E070E0E0E0F0E0C10181709070892BDD
:103C6000E9F0E60CF71C081D191D9A01AB012A0D9D
:103C70003B1D4C1D5D1D80E090E0A0E0B0E0E6142F
:103C8000F7040805190520F481E090E0A0E0B0E019
:103C9000BA01A901480F591F6A1F7B1FAA0CBB1C40
:103CA000CC1CDD1C97FE08C081E090E0A0E0B0E0F5
:103CB000A82AB92ACA2ADB2A3196E032F10549F04E
:103CC000660C771C881C991C56944794379427944B
:103CD000C3CFFA85EA892B893C898B859C85280F7F
:103CE000391F2E5F3F4F17C0CA0181709070892B1A
:103CF00061F016950795F794E79480E090E0A0E0D6
:103D0000B0E8E82AF92A0A2B1B2B76956795579578
:103D100047952F5F3F4F77FDE7CF0CC0440F551FEE
:103D2000661F771F17FD4160EE0CFF1C001F111F5F
:103D300021503040403090E0590790E0690790E40E
:103D4000790760F32B8F3C8FDB01CA018F7790706E
:103D5000A070B07080349105A105B10561F447FDF4
:103D60000AC0E114F1040105110529F0405C5F4F20
:103D70006F4F7F4F40781A8EFE1711F081E08A8FC7
:103D80004D8F5E8F6F8F78A383E0898FCE01499628
:103D90000E940B21A096E2E10C94D922A8E1B0E0A8
:103DA000E4EDFEE10C94C52269837A838B839C83C6
:103DB0002D833E834F835887B9E0EB2EF12CEC0E18
:103DC000FD1ECE010196B7010E94E0218E010F5E1B
:103DD0001F4FCE010596B8010E94E02129852230AF
:103DE00008F47EC03989323010F4B8017CC08A856D
:103DF0009A8989278A87243011F0223031F42317D9
:103E000009F06EC064EF70E06EC0343039F41D8686
:103E10001E861F86188A1C861B8604C0323021F439
:103E200084E08987B7015FC02B853C858B899C899D
:103E3000281B390B3C872B87ED84FE840F8518895E
:103E4000AD88BE88CF88D88CEA14FB040C051D050C
:103E500040F4EE0CFF1C001F111F215030403C8726
:103E60002B8720E030E040E050E080E090E0A0E0F0
:103E7000B0E460E070E0EA14FB040C051D0540F0BE
:103E8000282B392B4A2B5B2BEA18FB080C091D0940
:103E9000B695A79597958795EE0CFF1C001F111FEF
:103EA0006F5F7F4F6F31710531F7DA01C9018F778D
:103EB0009070A070B07080349105A105B10561F4D7
:103EC00027FD0AC0E114F1040105110529F0205C69
:103ED0003F4F4F4F5F4F20782D873E874F87588B3E
:103EE000BE01675F7F4FCB010E940B216896EAE01D
:103EF0000C94E122A8E1B0E0E0E8FFE10C94C922D3
:103F000069837A838B839C832D833E834F83588779
:103F100089E0E82EF12CEC0EFD1ECE010196B701D2
:103F20000E94E0218E010F5E1F4FCE010596B80161
:103F30000E94E0218985823040F08989823028F012
:103F4000C701B8010E94582201C08FEF6896E6E0D1
:103F50000C94E522A8E1B0E0E0EBFFE10C94C9226B
:103F600069837A838B839C832D833E834F83588719
:103F700089E0E82EF12CEC0EFD1ECE010196B70172
:103F80000E94E0218E010F5E1F4FCE010596B80101
:103F90000E94E0218985823040F08989823028F0B2
:103FA000C701B8010E94582201C08FEF6896E6E071
:103FB0000C94E522A8E1B0E0E0EEFFE10C94C92208
:103FC00069837A838B839C832D833E834F835887B9
:103FD00089E0E82EF12CEC0EFD1ECE010196B70112
:103FE0000E94E0218E010F5E1F4FCE010596B801A1
:103FF0000E94E0218985823040F08989823028F052
:10400000C701B8010E94582201C081E06896E6E02D
:104010000C94E522A8E0B0E0E0E1F0E20C94C622C6
:104020009B01AC0183E08983DA01C9018827B7FDD0
:1040300083959927AA27BB27B82E2115310541055D
:10404000510519F482E089833AC08823A9F0203011
:1040500080E0380780E0480780E8580729F460E0EE
:1040600070E080E09FEC30C0EE24FF248701E21A6C
:10407000F30A040B150B02C079018A018EE1C82EE8
:10408000D12CDC82CB82ED82FE820F831887C8019F
:10409000B7010E94BC2001971816190684F4082E57
:1040A00004C0EE0CFF1C001F111F0A94D2F7ED8212
:1040B000FE820F831887C81AD90ADC82CB82BA82A3
:1040C000CE0101960E940B212896E9E00C94E22291
:1040D000ACE0B0E0EEE6F0E20C94CD2269837A83A6
:1040E0008B839C83CE010196BE016B5F7F4F0E9444
:1040F000E0218D81823061F1823050F1843021F4F1
:104100008E81882351F12EC02F81388537FD20C044
:104110006E812F3131051CF06623F9F023C08EE14A
:1041200090E0821B930B29853A854B855C8504C002
:1041300056954795379527958A95D2F76623B1F01E
:1041400050954095309521953F4F4F4F5F4F0EC092
:1041500020E030E040E050E009C02FEF3FEF4FEFAC
:104160005FE704C020E030E040E050E8B901CA0158
:104170002C96E2E00C94E922EF92FF920F931F93AA
:104180007B018C0180E0E81680E0F80681E00807FA
:1041900080E0180788F48FEFE816F1040105110597
:1041A00031F028F088E090E0A0E0B0E017C080E0B7
:1041B00090E0A0E0B0E012C080E0E81680E0F806F1
:1041C00080E0080781E0180728F088E190E0A0E08F
:1041D000B0E004C080E190E0A0E0B0E020E230E098
:1041E00040E050E0281B390B4A0B5B0B04C01695CE
:1041F0000795F794E7948A95D2F7F701E450FF4FBB
:104200008081281B310941095109C9011F910F9172
:10421000FF90EF900895DF92EF92FF920F931F931C
:10422000FC01E480F58006811781D1808081823095
:1042300048F480E090E0A0E1B0E0E82AF92A0A2BF7
:104240001B2BA5C0843009F49FC0823021F4EE24DA
:10425000FF24870105C0E114F1040105110519F4DB
:10426000E0E0F0E096C0628173819FEF62387907E9
:104270000CF05BC022E83FEF261B370B2A313105DB
:104280002CF020E030E040E050E02AC0B801A70167
:10429000022E04C076956795579547950A94D2F7F4
:1042A00081E090E0A0E0B0E004C0880F991FAA1F51
:1042B000BB1F2A95D2F70197A109B1098E219F2131
:1042C000A023B1230097A105B10521F081E090E082
:1042D000A0E0B0E09A01AB01282B392B4A2B5B2BD5
:1042E000DA01C9018F779070A070B07080349105A9
:1042F000A105B10539F427FF09C0205C3F4F4F4F9E
:104300005F4F04C0215C3F4F4F4F5F4FE0E0F0E054
:104310002030A0E03A07A0E04A07A0E45A0710F0D6
:10432000E1E0F0E079018A0127C06038710564F5A9
:10433000FB01E158FF4FD801C7018F779070A07043
:10434000B07080349105A105B10539F4E7FE0DC0C8
:1043500080E490E0A0E0B0E004C08FE390E0A0E053
:10436000B0E0E80EF91E0A1F1B1F17FF05C01695C7
:104370000795F794E794319687E016950795F7949B
:10438000E7948A95D1F705C0EE24FF248701EFEF6B
:10439000F0E06E2F679566276795902F9F77D794EB
:1043A000DD24D7948E2F8695492F462B582F5D29D3
:1043B000B701CA011F910F91FF90EF90DF90089510
:1043C000FC01DB01408151812281622F6F7770E017
:1043D000221F2227221F9381892F880F822B282FAB
:1043E00030E0991F9927991F11969C9311972115D9
:1043F0003105A9F5411551056105710511F482E0FA
:1044000037C082E89FEF13969C938E9312979A0180
:10441000AB0167E0220F331F441F551F6A95D1F788
:1044200083E08C930DC0220F331F441F551F12963B
:104430008D919C911397019713969C938E9312974D
:10444000203080E0380780E0480780E4580758F3C0
:1044500014962D933D934D935C93179708952F3F9A
:10446000310579F4411551056105710519F484E0B0
:104470008C93089564FF03C081E08C9312C01C925A
:1044800010C02F57304013963C932E93129783E021
:104490008C9387E0440F551F661F771F8A95D1F7CD
:1044A000706414964D935D936D937C931797089564
:1044B0001F93DC01FB019C91923008F447C080817E
:1044C000823008F443C0943051F411961C9184302A
:1044D00099F58181682F70E0611B71093FC08430BC
:1044E00021F0923031F48230B9F18181882389F151
:1044F0002DC011961C9111978230F1F0818118170F
:10450000D9F412962D913C91139782819381821751
:10451000930794F028173907BCF014968D919D915C
:104520000D90BC91A02D248135814681578128179B
:1045300039074A075B0718F4112341F00AC08217B4
:104540009307A407B50740F4112319F061E070E068
:1045500005C06FEF7FEF02C060E070E0CB011F91FC
:104560000895991B79E004C0991F961708F0961BCF
:10457000881F7A95C9F7809508952F923F924F92A0
:104580005F926F927F928F929F92AF92BF92CF92E3
:10459000DF92EF92FF920F931F93CF93DF93CDB7EC
:1045A000DEB7CA1BDB0B0FB6F894DEBF0FBECDBF64
:1045B00009942A88398848885F846E847D848C8435
:1045C0009B84AA84B984C884DF80EE80FD800C813E
:1045D0001B81AA81B981CE0FD11D0FB6F894DEBF21
:1045E0000FBECDBFED0108953BD080F09F3740F462
:1045F00091110EF44DC060E070E080E89FE30895F3
:1046000026F01B16611D711D811D01C01BC0882372
:1046100071F4772321F09850872B762F07C06623FB
:1046200011F499270DC09051862B70E060E02AF0BC
:104630009A95660F771F881FDAF7880F96958795EA
:1046400097F908959F3F31F0915020F48795779521
:104650006795B795880F911D9695879597F9089559
:10466000D0D0A0F0BEE7B91788F4BB279F3860F41C
:104670001616B11D672F782F8827985FF7CF86957C
:1046800077956795B11D93959639C8F30895E89489
:10469000BB2766277727CB0197F90895FA01EE0F1C
:1046A000FF1F30962105310599F16115710561F4FF
:1046B0008038BFE39B0749F168949038810561F029
:1046C0008038BFEF9B0741F0992342F5FF3FE1059A
:1046D0003105210511F1E8940894E795D901AA2341
:1046E00029F4AB2FBE2FF85FD0F310C0FF5F70F43A
:1046F000A695E0F7F73950F019F0FF3A38F49F77B4
:104700009F930CD00F9007FC905808953EF049C03D
:1047100060E070E080E89FE308954FE79F775F9344
:104720004F933F932F93C9D02F913F914F915F911A
:104730003BDA05C019F40EF02EC0A9CF32C061D00B
:10474000C8F39638C0F707F80F92E8942BE33AEADB
:1047500048EB5FE731D10F920F920F924DB75EB7E2
:104760000F92EBD0E4E5F0E01FD04F915F91EF9115
:10477000FF91E595EE1FFF1F49F0FE57E0684427C3
:10478000EE0F441FFA95E1F74195550B5DD00F9060
:1047900007FE51C0089597F99F6780E870E060E0D8
:1047A00008959FEF80EC0895DF93CF931F930F93AD
:1047B000FF92EF92DF927B018C01689405C0DA2EA4
:1047C000EF01F8D0FE01E894A5912591359145912E
:1047D0005591AEF3EF0152D1FE019701A801DA9491
:1047E00079F7DF90EF90FF900F911F91CF91DF91BC
:1047F000089557FD9058440F551F59F05F3F71F0D1
:104800004795880F97FB991F61F09F3F79F0879537
:104810000895121613061406551FF2CF4695F1DFC0
:1048200008C0161617061806991FF1CF8695710550
:104830006105089408959B01AC0160E070E080E898
:104840009FE3ACCAA8CFFECEDCDFE8F39923D9F30F
:10485000940F511DBBF39150504094F059F08823B0
:1048600032F0660F771F881F91505040C1F79E3F6E
:10487000510544F7880F911D9695879597F90895EE
:104880005F3FACF0983E9CF0BB2786957795679587
:10489000B79508F4B1609395C1F7BB0F58F711F4C1
:1048A00060FFE8CF6F5F7F4F8F4F9F4FE3CFF0CE1A
:1048B0000EF0C8CE76CF68946ECFA3DFC8F39923ED
:1048C000D1F3C6F3DF93CF931F930F93FF92C92FBA
:1048D000DD2788232AF02197660F771F881FDAF7D4
:1048E00020E030E040E85FEB9FE3883920F0803E35
:1048F00030F021968F772BD9ECE7F0E003C027D971
:10490000E9EAF0E051DF8B01BE01EC01FB2E6F57AD
:1049100071097595771F880B990B7CDB28E132E7CD
:1049200041E35FE347D0AF2D9801AE01FF900F91B7
:104930001F91CF91DF91A2D002C1FA01DC01AA0F31
:10494000BB1F9B01AC01BF5728F422273327442704
:1049500050781FC0B75188F4AB2F00244695379587
:104960002795011CA395D2F3002069F0220F331F75
:10497000441FB395DAF30DD0B9C861307105A0E8D2
:104980008A07B94630F49B01AC0166277727882750
:104990009078309621F020833183428353830895A9
:1049A000C0D028F0C5D018F0952309F0F4CEF9CE88
:1049B00011246ECE1EDFA0F3959FD1F3950F50E02A
:1049C000551F629FF001729FBB27F00DB11D639FC1
:1049D000AA27F00DB11DAA1F649F6627B00DA11D67
:1049E000661F829F2227B00DA11D621F739FB00D0D
:1049F000A11D621F839FA00D611D221F749F33277D
:104A0000A00D611D231F849F600D211D822F762F15
:104A10006A2F11249F5750408AF0E1F088234AF012
:104A2000EE0FFF1FBB1F661F771F881F915050405E
:104A3000A9F79E3F510570F0AECE2ACE5F3FECF352
:104A4000983EDCF3869577956795B795F795E7954A
:104A50009F5FC1F7FE2B880F911D9695879597F95B
:104A600008955FD030F064D020F031F49F3F11F40E
:104A70001EF497CE0EF4E095E7FB8DCEE92FB9DE5C
:104A800080F3BA17620773078407950718F071F46B
:104A90009EF5FDCD0EF4E0950B2EBA2FA02D0B0147
:104AA000B90190010C01CA01A0011124FF27591B73
:104AB00099F0593F50F4503E68F11A16F040A22F79
:104AC000232F342F4427585FF3CF469537952795EA
:104AD000A795F0405395C9F77EF41F16BA0B620BE9
:104AE000730B840BBAF09150A1F0FF0FBB1F661F30
:104AF000771F881FC2F70EC0BA0F621F731F841F73
:104B000048F4879577956795B795F7959E3F08F098
:104B1000B3CF9395880F08F09927EE0F9795879557
:104B2000089500240A941616170618060906089513
:104B300000240A9412161306140605060895092E79
:104B40000394000C11F4882352F0BB0F40F4BF2BE8
:104B500011F460FF04C06F5F7F4F8F4F9F4F089528
:044B6000F894FFCFF7
:104B640054696D65200020414D00000048424673A1
:104B7400703A353025206469723A202B3030005465
:104B8400696D652030303A30303A303020414D0084
:104B9400312E204443204D6F746F72207B00202CF3
:104BA40020007D00322E2053746570706572204D94
:104BB4006F746F72207B0073643A00206469723AE8
:104BC4002000496E76616C696420446174612046FA
:104BD4006F726D61742075736520746869732066E3
:104BE4006F726D61742028585858415959424529AB
:104BF400003030000000000000000000000102024C
:104C04000303030304040404040404040505050560
:104C1400050505050505050505050505060606063C
:104C24000606060606060606060606060606060620
:104C3400060606060606060606060606070707070C
:104C440007070707070707070707070707070707F0
:104C540007070707070707070707070707070707E0
:104C640007070707070707070707070707070707D0
:104C740007070707070707070707070708080808BC
:104C840008080808080808080808080808080808A0
:104C94000808080808080808080808080808080890
:104CA4000808080808080808080808080808080880
:104CB4000808080808080808080808080808080870
:104CC4000808080808080808080808080808080860
:104CD4000808080808080808080808080808080850
:104CE4000808080808080808080808080808080840
:0C4CF40008080808080808080808080854
:00000001FF
